:100000000C9492040C94AF040C94AF040C94AF04C1
:100010000C94AF040C94AF040C94AF040C94AF0494
:100020000C94AF040C94AF040C94A5190C94E7182D
:100030000C941E140C94AF040C94AF040C94AF04F5
:100040000C94AF040C94AF040C94AF040C94AF0464
:100050000C94AF040C94D1130C94AF040C94AF0423
:100060000C94AF040C94AF040C94AF040C94AF0444
:100070000C94AF040C94AF040C94AF040C94AF0434
:100080000C94AF040C94AF040C94AF040C94AF0424
:100090000C94AF040C94AF040C94AF040C94AF0414
:1000A0000C94AF040C94AF040C94AF040B080B0831
:1000B0003A083A08A408C008CA09CA09CB083F0987
:1000C0005009500905172C17CF182C17CF1878177F
:1000D0009B17CF1890189F18381F3D1F471F3B1FB5
:1000E000401F451F431F7120742077207A207D20F8
:1000F00080208320000000000000000000000000BD
:1001000000000000000000000000000000000000EF
:1001100000000000000000007E0F00D4FFFFFFC7BA
:100120000000007800000000000000002A2B2800DA
:100130000000000000000000000000000000002996
:10014000000000002C1E3420212224342627252ED6
:10015000362D3738271E1F2021222324252633330E
:10016000362E37381F0405060708090A0B0C0D0E3A
:100170000F101112131415161718191A1B1C1D2F06
:100180003130232D350405060708090A0B0C0D0E26
:100190000F101112131415161718191A1B1C1D2FE6
:1001A0003130354C0102E30101150103E301043153
:1001B00030307C01011A01043130307C010117011B
:1001C000043130307C0101280029002B002D002D46
:1001D00002010000001E00140004001D00E300E006
:1001E000001F001A0016001B00010001512000082A
:1001F000000700060001002C00210015000900196D
:1002000000E2002900220017000A00050000004A51
:100210000001002C040000010000004B000100035D
:10022000580000010000004E0023001C000B0011CC
:100230000000004D00240018000D001000E6124CD4
:100240000025000C000E0036000511284226001281
:10025000000F0037000100E50027001300005738A9
:100260000001002A0005532E00340034020454001B
:10027000000100010001000100010000001E020158
:10028000004A000100010001001F024F0101001B94
:10029000010100010020024D004C00060101000197
:1002A0000021020100010001000100010022020101
:1002B00000010050010000010001000100000001E8
:1002C0000000000100010001000000010000000129
:1002D0000023020601500001000000010024021D5D
:1002E000015100010001000100250201005200013E
:1002F0000001002802010001004F0001000100017F
:1003000000010019010100090101000100010001C3
:1003100000010001000100000001000100010001D6
:10032000000100000001001E02360235020100013A
:100330000001001F022F0001000100010001002048
:10034000022F0201000100010001002102260235F6
:10035000000100010001002202380201000000013A
:100360000001000100000001000000010001000187
:10037000000000010000000100010023023802011A
:1003800000000001000100240227023102010001E7
:100390000001002502300201000100010001002ED1
:1003A00002300001000100010001002E003702317F
:1003B0000001000100010001000100010001000036
:1003C000000100010001000100010000003A0001ED
:1003D0000001000100010001003B000100010001DB
:1003E00000010001003C00010001000100010001CA
:1003F000003D00010001000100010001003E00017C
:1004000000010001000000010001000100000001E6
:1004100000000001000100010000000100000001D7
:10042000003F005400550001000000010040005F43
:10043000005C00590062000100410060005D005A4C
:100440000062000100420061005E005B0063000189
:100450000043005600570001000100010001004464
:100460000045000100010000002903010001000116
:100470000001000000010001000100010001000175
:10048000000100010001003D0450094C020100017F
:10049000000100060A4F092C0401000100010001BF
:1004A00000010001000100B65D0100010000000133
:1004B0000001000100000001000000010001000136
:1004C00000000001000000010001000100010050D7
:1004D000080000010001000100500A51080100015C
:1004E00000010001004F0A520801002B0401000125
:1004F000000F084F0801002B060100460001000113
:1005000000010001004C0501000100010001000094
:1005100000010001000100010001000000010001D4
:100520000001000100010001000100F100EF0001E5
:10053000000100CA5CF300ED00EE0001000100CBF9
:100540005C0100F200F0000100010001000100F96F
:1005500000FA0001000000C45CAC00AA000000AE7C
:100560000000000100AB00A9000000AE000000C3C5
:100570005C01000100010001000000B55D01000107
:100580000001000100010001000100010001000163
:10059000000100C65C01000100010001000100C76C
:1005A0005C010001000100010001000100010001E7
:1005B0000001000100010000000044345400746494
:1005C00084005545650085759500362646006656BB
:1005D00076009686A6003727470077678700382879
:1005E0004800887898003929490069597900998923
:1005F000A9003A2A4A006A5A7A003B2B4B006B5BEF
:100600007B004C3C5C007C6C8C005D4D6D008D7DF6
:100610009D003E2E4E006E5E7E0144345401746493
:100620008401554565018575950136264601665656
:1006300076019686A6013727470177678701382814
:1006400048018878980139294901695979019989BE
:10065000A9013A2A4A016A5A7A013B2B4B016B5B8A
:100660007B014C3C5C017C6C8C015D4D6D018D7D92
:100670009D013E2E4E016E5E7E05010980A1018521
:100680000319012AB700150126B7009501751081DD
:1006900000C0050C0901A101850419012AA0021559
:1006A0000126A002950175108100C005010906A16F
:1006B000018506050719E029E7150025019508754C
:1006C0000181020507190029EF1500250195F07534
:1006D0000181020508190129059505750191029509
:1006E0000175039101C005010902A1010901A100E1
:1006F00005091901290815002501950875018102D0
:100700000501093009311581257F9502750881069B
:1007100009381581257F950175088106050C0A3871
:10072000021581257F950175088106C0C005010964
:1007300006A101050719E029E715002501950875AF
:100740000181029501750881010507190029FF152E
:100750000026FF0095067508810005081901290586
:10076000950575019102950175039101C009025427
:1007700000030100A0FA09040000010301010009BF
:100780002111010001224000070581030800010931
:1007900004010001030102000921110100012247A7
:1007A000000705820308000109040200010300009C
:1007B00000092111010001226D00070583032000BB
:1007C0000112010002000000089732764901000181
:1007D00002000120034500720067006F0044006FB3
:1007E000007800200045005A00200047006C006F90
:1007F000007700000028035A0053004100200054F5
:10080000006500630068006E006F006C006F006799
:1008100000790020004C00610062007300000004B9
:1008200003090400010101010101010101020202A9
:10083000020202020202030303030303030304048C
:100840000404040404050505050506060606060756
:100850000707070708080808090909090A0A0A0B0F
:100860000B0B0C0C0C0D0D0D0E0E0E0F0F0F1010B0
:100870001111111212131314141515161617171837
:100880001819191A1A1B1B1C1D1D1E1E1F202021A2
:100890002222232424252626272829292A2B2C2DE9
:1008A0002D2E2F30313232333435363738393A3B0A
:1008B0003C3D3E3F404142434445464748494A4CFF
:1008C0004D4E4F50515354555658595A5B5D5E5FCB
:1008D000616264656668696B6C6D6F707273757761
:1008E000787A7B7D7E8082838587888A8C8E8F91C3
:1008F000939596989A9C9EA0A2A3A5A7A9ABADAFED
:10090000B1B3B5B7BABCBEC0C2C4C6C9CBCDCFD1D6
:10091000D4D6D8DBDDDFE2E4E7E9EBEEF0F3F5F87F
:10092000FAFDFF0011241FBECFEFDAE0DEBFCDBF1E
:1009300012E0A0E0B1E0E4E0F2E502C005900D9223
:10094000A035B107D9F724E0A0E5B2E001C01D92BF
:10095000A13FB207E1F70E947C1A0C9400290C9485
:100960000000AAE0B0E0E7EBF4E00C942227FC01E1
:100970008081918123813481232B31F09F3F31F499
:1009800091E08F3F19F403C091E001C090E090FD29
:1009900060C57F0185E0DE01169601900D928A9573
:1009A000E1F7D70112962C918E819F81222349F085
:1009B0000E94F223182F682F8E819F810E9462244B
:1009C00003C00E942E24182F6E817F81812F0E94E8
:1009D000720A8C01F7018281882369F180913D04BC
:1009E00090913E04009709F424C58017910709F4FB
:1009F00020C5FEE08F9FC0011124FC01E05EFE4F88
:100A0000208124602083855E9E4FDC010D931C9322
:100A10000E94C21410923C04033BBDE51B0779F011
:100A2000043BEDE51E0709F44CC0033CFCE51F0741
:100A300009F08BC06AC0033BFDE51F07E9F5D7014C
:100A400012968C91882309F453C19091880481E017
:100A5000890F8770987F853020F4892B80938804D4
:100A600002C090938804809188048770BFEF8B9FA9
:100A7000C001112495958795959587959927909311
:100A800089008093880090938B0080938A009093D4
:100A90008D0080938C00409188045091890460916E
:100AA0008A0470918B048FE090E00E94A6278091C9
:100AB0009A040E94221F1CC1043B2DE5120709F075
:100AC0003FC0F7018281882309F412C18091880414
:100AD00083FB222720F991E0922790FB83F98093F2
:100AE0008804992329F040E060E080E00E947F21A3
:100AF000409188045091890460918A0470918B041C
:100B00008FE090E00E94A627F3C0D70112968C9147
:100B1000882309F46EC49091850480917F049F3FDF
:100B200059F410928504816080937F0440E060E076
:100B300080E00E947F215DC49FEF9093850475C182
:100B4000033C3CE5130709F454C4F7018281053BDB
:100B5000FDE51F0709F4C8C0063B2DE5120709F0A3
:100B6000C7C0882309F414C124EAC22E21E0D22E82
:100B70003AE0432EF6012491222309F409C12130E1
:100B800009F04EC031968491813069F4F2E0CF0EC5
:100B9000D11CF6018491893319F460E570E09CC0A2
:100BA00060E070E099C0823041F4F2E0CF0ED11CD9
:100BB000F60184910E945E2593C0833041F4F2E0F7
:100BC000CF0ED11CF60184910E94292589C0843062
:100BD00009F085C0F2E0CF0ED11CF601249180E02F
:100BE00090E030E0205331092A30310570F4489EFE
:100BF000A001499E500D1124C901840F951FFFEFDC
:100C0000CF1ADF0AF6012491ECCF009709F468C0EF
:100C1000AFE9BFE01197F1F700C000000197F5CFF1
:100C2000E22FF0E0EC5DFE4F5490822F8695869582
:100C3000869590E0FC01EC5EFE4F64902770712C6D
:100C4000022E02C0759467940A94E2F7B1E06B2219
:100C50007724FC01EC5FFE4F8490912C022E02C0A1
:100C6000959487940A94E2F7E1E08E229924FC019E
:100C7000EC50FF4FA490B12C02C0B594A7942A95D4
:100C8000E2F7F1E0AF22BB246114710419F081EEA8
:100C90000E945E258114910409F4C2C386EE0E946D
:100CA0005E2529E3521609F4B5C360E070E0852D96
:100CB0000E9403268114910419F086EE0E942925D2
:100CC0006114710419F081EE0E942925A114B10468
:100CD00039F060E070E08CE20E94032601C06F01F1
:100CE0003FEFC31AD30A46CF882309F482C3CBC08F
:100CF000C80197558F3F910511F008F049C0580180
:100D0000BB248EE0089FF0011124DF01A55EBE4FD9
:100D10006D01D70112969C911297E05EFE4F808183
:100D200090FB80F9808312969C91992309F421C14C
:100D30000E9412149093BB048093BA04F60182813E
:100D40008F5F828390913C0480915004892B838330
:100D50008091CB0284830680F781E02D309739F0B3
:100D6000D6011C966D917C911D97C60109958EE068
:100D70008A9DF0018B9DF00D1124E05EFE4F808175
:100D800081FFF4C090E080E090933D0480933E04A6
:100D9000F701828181117BC08091500482720A3CEC
:100DA000FCE51F0709F45EC028F5063C3CE5130787
:100DB00009F449C0A8F4043CACE51A07D1F1F0F5F8
:100DC000033CECE51E0709F0DAC09091800481E055
:100DD00089278093800410920C0180917F0425C0A4
:100DE000083CFCE51F07A1F1C0F54DEC52E163ECB6
:100DF00072E146C00E3C3CE5130709F444C050F4D0
:100E00000C3CACE51A0799F1B8F54CE952E16FE8F2
:100E100072E136C0073DECE51E0708F4EAC20F3563
:100E2000FDE51F0709F4E5C2AAC0816080937F0435
:100E3000E0C247ED52E161EE72E122C041EE52E1C3
:100E400067ED72E11DC043EC52E16DEC72E118C038
:100E500049EA52E166EB72E113C046EB52E169EAFE
:100E600072E10EC04FE852E16CE972E109C044E161
:100E700050E162E270E104C042E250E164E170E1FD
:100E80000E94ED14B6C281E00E94C415B2C20C35B6
:100E90002DE5120709F464C060F401158CE518070C
:100EA000A9F00F3D9CE5190709F069C00E94270CC5
:100EB0004CC00E35ADE51A0709F44AC008F452C01B
:100EC000093AEDE51E0709F440C059C010925004DC
:100ED0000E94F324FFEF24E33CE0F1502040304037
:100EE000E1F700C00000F89481E08093E00080E228
:100EF0008093D8001092C9008FE19EE40197F1F72A
:100F000000C000001DBA109268001CBC10BE1FBAC1
:100F100010927A0010926E0010926F001092710081
:100F2000109272001092C9001092BC0014B817B849
:100F30001AB81DB810BA1092BC0015B818B81BB872
:100F40001EB811BA0C94003F54C20E94841E51C2B4
:100F500080914B0482FB882780F991E0892703C0A8
:100F600081E001C080E00E94230D09C0902F812FF5
:100F70000BCF81FF11CFC6010E94A81409CFF70142
:100F8000828100811181882349F0C8010E94F223E7
:100F9000D82E682FC8010E94622404C0C8010E9494
:100FA0002E24D82EB8018D2D0E94720A0E948B0A21
:100FB0008C01982EF701D280C580C2949FE0C9228F
:100FC0008091AA028770B9F0DD20A9F0812F807F7F
:100FD000803421F080E2800F883068F080914B04EB
:100FE00082FF09C082E00E94060D8091AA028770EC
:100FF000BB24B3948111B12CA12EA2948FE0A8221E
:101000008A2D90E08C30910508F0C4C1FC01EA5AA9
:10101000FF4F0C94CC27812F807F1F70882311F005
:101020001295107FDD20B9F0112309F4A1C180E2EF
:10103000800F883010F0911006C080915004182B5A
:101040001093500405C080913C04182B10933C046D
:101050000E94B10C8DC1802F0E942925112309F413
:1010600099C1005E812F083060F1992051F10E94F2
:10107000A30C29C0812F807F1F70803211F0129540
:10108000107F992021F0F1E09F16D9F147C080919F
:101090004B0482FD1BC0DD2069F0112339F08091E3
:1010A0005004182B109350040E94B10C80E00E9451
:1010B0005E2570C180E00E942925112309F46AC1D0
:1010C000812F0E94AA0C0E94B10C64C1DD2081F026
:1010D0008091CB02CC2051F021E0C21207C0182B26
:1010E000181709F457C11093CB0254C1812B10C0BB
:1010F000CC2021F031E0C31609F44CC10E949D0CB4
:101100001FC0DD2041F081E08C1508F443C1812F20
:101110000E941F253FC1C1103DC112C0DD2019F042
:10112000CC20A9F325C1CC2059F0093309F02FC1F7
:101130009FEFA7EEB3E09150A040B040E1F725C18A
:10114000812F0E94182526C1812F86958695837050
:1011500019F0813059F01EC1DD2019F0C8019370DB
:1011600002C080E090E00E9485141AC1DD2019F0D1
:10117000C801937002C080E090E00E946F1410C11B
:10118000802FDD2019F00E94542302C00E949C226F
:101190000E94AF2305C1812F8370A9F5D110FEC035
:1011A000402F429546954770440F440F802F8F7013
:1011B00090E09C01042E01C0220F0A94EAF704FF7C
:1011C00008C08FE090E001C0880F4A95EAF780954B
:1011D00001C080E0169516951370123069F088F4FE
:1011E0009091CC02113019F0822B892302C0922BEE
:1011F000892B0E94B724D2C0822B9091CC028927E0
:10120000F8CF822BF6CFDD2019F0812F817001C03D
:101210008695882309F4C2C0402F429546954770B1
:10122000440F440F802F8F7090E09C01042E01C06A
:10123000220F0A94EAF704FF08C08FE090E001C093
:10124000880F4A95EAF7809501C080E016951695BB
:101250001370123059F078F490919A04113019F00B
:10126000822B892309C0922B892B06C0822B909157
:101270009A04892701C0822B0E9497248FC01F7077
:10128000DD2039F0812F0E94AB24802F0E941F2582
:1012900085C0802F0E941825812F0E949E247EC029
:1012A000802FE2EF9E1669F1E91538F0F0EF9F16F6
:1012B00059F021EF921601F157C033EF931641F127
:1012C00094EF9916A9F050C0DD2069F0C11062C0FA
:1012D0001F7181E090E001C0880F1A95EAF79091A4
:1012E0009A0489271FC0A1E0AC1508F453C0F0CFC1
:1012F00080914B0482FD19C0DD2029F0812F8F7170
:1013000026C0DD20D9F3812F8F710E949E2442C018
:10131000DD2039F01F7181E001C0880F1A95EAF7CE
:1013200001C080E00E94972435C0DD2099F01F7134
:10133000812F0E94AB2480914B0482FF07C0B8E04C
:101340001B9FC001112483608093AA02812F0E94F9
:10135000AB2420C081E00E94060DE1E0EC15D0F442
:1013600082E00E94060D16C0DD2021F0CC2031F273
:10137000802F9DCECC2039F2893349F4FFEF27EE40
:1013800033E0F15020403040E1F700C00000802FF2
:101390000E94292588EF8A0D843010F40E949B1446
:1013A000BB20B1F08091AA0280FD12C0D701129635
:1013B0001C928595859585950E94AB24C7010E9456
:1013C000B1048091AA028595859585950E949E24F9
:1013D00085E0F701DE01119601900D928A95E1F703
:1013E00009811A81C8010E942E24B8010E94720A44
:1013F00030C08091AA02877061F1D70112968C915A
:10140000882339F180914B0482FF23C082E00E943F
:10141000060D1FC060E570E089E30E9403264DCCF5
:1014200089E3581242CC60E570E089E30E9403260C
:1014300047CC033B9DE5190709F407CB043BADE519
:101440001A0709F43ECB033CBCE51B0709F07DCB32
:1014500062CB2A96E0E10C943E2780E008959091BB
:101460004A0492FF0DC0282F2871283019F4877F75
:10147000846006C0282F2471243011F48B7F88608B
:1014800093FF0DC0282F2871283119F4877E8461BD
:1014900006C0282F2471243111F48B7E886120919D
:1014A0004B0420FF0DC0382F3871383019F4877F76
:1014B000816006C0382F3171313011F48E7F886021
:1014C00021FF0DC0282F2871283119F4877E8161F2
:1014D00006C0282F2171213111F48E7E886194FD80
:1014E000877E08957E30A0F4663090F494E5899F5D
:1014F000F001112486E0789FE00DF11D1124E60F24
:10150000F11DEE0FFF1FE753FE4F85919491089553
:1015100080E090E00895CF93DF938238910569F1E0
:10152000B0F48133910509F477C048F4893291050C
:1015300009F469C08A32910509F473C092C08533F9
:10154000910509F45BC089339105B9F08AC0833EE7
:10155000910591F138F4803E9105D1F0823E9105DC
:1015600031F17FC0863E9105D9F1873E9105E9F1C1
:10157000843E910509F075C028C020914A0420FDE1
:101580005BC021FD59C020914B0423FD61C069C09F
:1015900080914A0480FD4AC080914B0480FF4CC07A
:1015A00080914A0484FD4EC183EE90E04DC180914C
:1015B0004A0482FF3EC0F4CF80914A0482FD39C0C4
:1015C00080914B0480FD38C0EBCF80914B0481FFAC
:1015D00039C080914A0484FD35C187EE90E034C162
:1015E00080914A0483FF2BC0F4CF80914A0483FD8D
:1015F00026C080914B0481FD25C0EBCF80914A0429
:1016000085FD26C022C080914A0485FD1EC08091C0
:101610004B0483FF1DC00AC080914A0486FD1BC095
:101620001DC080914A0486FD19C015C089E390E071
:101630000BC182EE90E008C180EE90E005C186EE1D
:1016400090E002C184EE90E0FFC085E390E0FCC032
:1016500089E290E0F9C08AE290E0F6C081E390E090
:10166000F3C0811531E5930708F061C0811520E5CD
:101670009207B0F09C012370332741E050E002C094
:10168000440F551F2A95E2F7282F2695269580E2CC
:10169000289F90011124CA01822B932B9D68D4C0EE
:1016A000883E910568F5803E910508F0CDC0883AE6
:1016B0009105B8F4853A910548F0855AE82FF0E095
:1016C000E45DFE4F808190E09064BEC08130910562
:1016D00009F4B5C008F4B6C08430910508F4B2C06E
:1016E000B3C08F3B910508F0ADC0885AE82FF0E0F9
:1016F000EE0FFF1FE15DFE4F808191819464A4C0D5
:10170000811530E2930758F4811521E0920708F023
:101710009BC08D3E910508F495C0906595C08115DC
:1017200030E4930708F48EC09F70906A8DC08115D5
:1017300025E5920708F042C0811534E5930728F0AB
:10174000982F8827846F906A7FC0811523E59207C0
:10175000B0F09C012370332741E050E002C0440FF9
:10176000551F2A95E2F7282F2695269580E2289F77
:1017700090011124CA01822B932B9A6865C08115B0
:1017800032E5930728F4982F8827816F906A5CC010
:101790009C012370332741E050E002C0440F551FE5
:1017A0002A95E2F7282F2695269580E2289F90011A
:1017B0001124CA01822B932B9C6846C0EC01C115F1
:1017C00089E5D807B0F4C11528E5D20728F09C2F89
:1017D0008827806F906A38C0C11536E5D30790F529
:1017E0008C2F0E942F0A8F7190E0982F882790628B
:1017F0002BC0C1158AE5D80790F48C2F8F700E94FA
:101800002F0A94E0D695C7959A95E1F7CF70D0E06E
:10181000DC2FCC27D0699E01282BC90115C0CE0131
:1018200090568115904270F48D2F8F710E942F0A6F
:10183000282F2F71CE0199279062922B05C081E04D
:1018400090E002C080E090E0DF91CF91089568EED3
:101850007EEF80E090E00E94B22760E082E090E0BE
:101860000E94942760E083E090E00E949427109209
:10187000CC0260E084E090E00E94942764E082E281
:1018800090E00E94942760E085E090E00E94942719
:1018900060E086E090E00E9494276FEF87E090E0A0
:1018A0000E94942740E050E0BA0188E090E00E9456
:1018B000A62760E08DE090E00E94942740E050E091
:1018C000BA0188E190E00E94A62760E087E190E0FD
:1018D0000E94942740E050E0BA018CE190E00E9421
:1018E000A62760E070E080E290E00E94B22740E02E
:1018F00050E0BA0188E190E00E94A6271092880487
:101900001092890410928A0410928B0484E08093D0
:101910008804409188045091890460918A047091F0
:101920008B048FE090E00E94A62740E050E0BA01CF
:1019300083E190E00E94A62708958091CB02811157
:101940001092CB020895809590913C048923809356
:101950003C0408958095909150048923809350040D
:1019600008959091500480913C04982B90935202DA
:101970008091CB028823D9F0892B809352028091E9
:101980000B01882331F080914A0487FF02C08EE169
:1019900001C086E0E4E5F2E090E0815028F021917A
:1019A0002223D9F39F5FF9CF91110E949D0C40E251
:1019B00050E06BEA72E082E592E00E94F328892B06
:1019C00021F180E2E2E5F2E0ABEAB2E001900D92B3
:1019D0008A95E1F7E0914104F09142043097A9F033
:1019E00080910B01882359F080914A0487FF07C03A
:1019F000809152028093530286E0809352020280CB
:101A0000F381E02D82E592E0099508952091AA02E4
:101A1000809582238093AA02982F977099F430E0E2
:101A2000482F082E000C550B2417350759F09091BC
:101A30004B0492FF07C08595859585950E949E244D
:101A40001092AA020895CF93C0914B04C2FB99272C
:101A500090F9981791F080FBC2F9C0934B04609104
:101A60004A0484E090E00E9494276C2F82E290E088
:101A70000E94942782E00E94060DCF9108958091E4
:101A8000A90290917802891719F08F5F8770FBCFB8
:101A900008950F931F93CF93DF93809177028295E0
:101AA0008F7009F05AC080917402882309F455C0E0
:101AB0008091A90210917802609172027091730274
:101AC000C0917502D091760291E06F3F09F090E0ED
:101AD000292F06E0811709F440C0209721F07F3FAD
:101AE00021F030E003C031E001C0322F90E030FD42
:101AF00031C0089FF001099FF00D1124DF01A758A4
:101B0000BD4F11963C911197371324C03C91361369
:101B100021C012963C91129731111CC013964D9121
:101B20005C9114974C1B5D0B403A510598F48091E1
:101B300077028F70806180937702E258FD4F808139
:101B40008F708061808382E792E00E94B1040E94DE
:101B50003F0D03C001968770BDCFDF91CF911F91DC
:101B60000F910895A1E1B0E0E8EBFDE00C94272788
:101B70008C0185E0F801DE011D9601900D928A9599
:101B8000E1F7F801E2809091720260917302409156
:101B90007502509176024115510531F06F3F31F4D5
:101BA00081E09F3F19F403C081E001C080E0F82F7D
:101BB000F1709F2E80FD1BC1F80130812181C3800F
:101BC000D48082E7A82E82E0B82EF0907402F6014D
:101BD000E41BF50BFF2009F4C7C080917702E03ABF
:101BE000F10508F092C0482F407F09F051C0621300
:101BF00011C093130FC0FE2CE1100CC08F708061D8
:101C000080937702C5010E94B10480917702F801A8
:101C100085832AC1C114D10431F02F3F31F481E012
:101C20003F3F19F403C081E001C080E080FD03C0A4
:101C300081E08E2502C080E090E0F82FF170FF2E49
:101C400080FF1CC08091A9024091780256E0841761
:101C500009F4E8C090E0589FF001599FF00D11245D
:101C6000E758FD4F6181261306C06081631303C0EE
:101C70006281E61203C001968770E9CFFE2CEE2048
:101C800009F4F2C08091770281608093770249C0A5
:101C9000621306C0931304C0E11002C0F80186C0AD
:101CA000C8010E94BC24882351F1EE2041F120910B
:101CB0007702822F82958F7090E0029774F0809166
:101CC00072029091730298878F831986DB86CA8689
:101CD0002C87CE0107960E94B10486E0F801A2E7A6
:101CE000B2E001900D928A95E1F70E94490D0AC079
:101CF0006217C9F0C8010E94BC2481111EC0C8012E
:101D00000E94B104FF24F394AFC0482F407F81F7B5
:101D100082E792E00E94B10486E0F50111928A9573
:101D2000E9F7F12CA1C09313E5CFE110E3CFF8015F
:101D30008583C8010E94B10454C0EE2001F32091B4
:101D40007702822F82958F7090E0029734F2809113
:101D50007202909173029A8389831B82DD82CC8206
:101D60002E83CE010196B7CFE03AF105D0F5FE2CD7
:101D7000EE2029F2621327C0931325C02091770229
:101D800020FD18C0822F82958F70482F50E041159A
:101D9000510581F0F80125834F30510541F08F5FE7
:101DA000982F9295907F822F8F70892B8583C80101
:101DB0000E94B10486E0F801A2E7B2E001900D9222
:101DC0008A95E1F751C0C8010E94BC24811185CFDA
:101DD00080917702816080937702C8010E94B104EC
:101DE00043C086E0F50111928A95E9F73DC0EE20E7
:101DF00009F485CFC8010E94BC24F82E882309F479
:101E00007ECF86E0F801A2E7B2E001900D928A95BC
:101E1000E1F780917202909173020E9421240E9446
:101E2000490D22C03D872E878D859E850E942124E5
:101E3000292F22952F70223028F49F7039F08111BC
:101E400005C00BC0243028F49F7049F4805E8830B0
:101E500020F0C8010E94B1049F2CF92C05C0F801A4
:101E60009581907F99F7F9CF8F2D6196EBE00C94D7
:101E70004327A0E0B0E0EFE3FFE00C942A27809135
:101E8000190190911A01892BA1F08091CD028F5FE9
:101E90008093CD0281110DC00E944C1F90E0909361
:101EA0001A0180931901892B21F40E94C31F0E94FB
:101EB000F4140CE814E07801D0E0C0E087E0C82E0C
:101EC000CC0E8C2F0E9433208C2D0E9433208C2F1F
:101ED0000E9496208F73F7019081891721F08083EB
:101EE000DD24D39401C0D12C8C2D0E9496208F73B9
:101EF000F7019781891719F0878381E001C080E09D
:101F0000D82ADD290E948720CF5FFFEFEF1AFF0A52
:101F1000C730A1F61092D202C091D102CC2309F4AD
:101F20007BC00E9412142091CF023091D002AC01EC
:101F3000421B530B9A019093D0028093CF024F3FE4
:101F4000510509F018F4452B19F102C02FEF30E0CC
:101F50001092D1021092CE02E0918604F091870493
:101F6000AF01425F5F4F90E030E08081882341F015
:101F7000281718F010829C2F03C0821B80833C2FEF
:101F80003196E417F50789F73093D1029093CE028A
:101F9000DD23A1F1E0918604F09187048091D202C3
:101FA0009091D102ADE9B4E0AF01425F5F4F63E2CF
:101FB000E80128813C91321779F0308131110CC051
:101FC00060832C9398819227282F30E0292B81E081
:101FD000232B09F480E091E0319611960F5F1F4F9B
:101FE000E417F50729F78093D2029093D1028091EC
:101FF000D202CDB7DEB7E8E00C94462781E090919D
:10200000CE029923A1F38111C5CF0E94121490939F
:10201000D0028093CF02BECFD111F7CF80E0EFCFB7
:102020000895809152040895E0E8F4E0248130E1BD
:10203000231B08F420E0248380917F048160809337
:102040007F040895E0E8F4E0248130E1230F08F4F0
:102050002FEF248380917F04816080937F04089513
:1020600080934C0470934E0460934D0480917504EA
:10207000843001F583E08093E9008FEF9091E800D0
:10208000815095FD06C095ED9A95F1F700008111FC
:10209000F5CF8091E80085FF0DC040E050E063E09F
:1020A00070E08CE494E00E94F6158091E8008E7751
:1020B0008093E8000895BC0184E00E9430100895E8
:1020C000BC0183E00E943010089522E02093E900D3
:1020D0002FEF3091E800215035FD06C035ED3A95DF
:1020E000F1F700002111F5CF2091E80025FF0BC08A
:1020F00040E050E065E070E00E94F6158091E80055
:102100008E778093E8000895CF93DF9320910B01A1
:10211000222339F020914A0427FF03C060E223E024
:1021200002C068E021E02093E9002FEF3091E80041
:10213000215035FD06C035ED3A95F1F7000021112B
:10214000F5CF2091E80025FF1DC0EC0180910B0127
:10215000811105C040E050E068E070E003C070E02D
:1021600040E050E0CE010E94F6158091E8008E77A5
:102170008093E80080E2FE01A3E5B4E001900D92B7
:102180008A95E1F7DF91CF910895A4E0B0E0EBEC00
:10219000F0E10C942D278033910588F5122F042F40
:1021A000F62EBC01660F771F660F771F67547A4FB4
:1021B00044E050E0CE0101960E9457278981837048
:1021C0004A81282F30E050E9859FC00111248A50B0
:1021D0009D4FFC01E40FF11DB497F0824B81FC018F
:1021E000E40FF11DB49700834C81840F911DFC0115
:1021F000B4971083F901EC50FD4F81E08083249661
:10220000E5E00C944927FF920F931F93CF93DF9340
:10221000182F062FF42EC0E0D0E02F2D402F612F75
:10222000CE010E94C5102196C033D105B1F7CDB7BC
:10223000DEB7E5E00C9449270F931F93CF93DF930C
:10224000082F000FEB0114E21093E002E1EEF2E040
:10225000DE018D91819382E0E13FF807D1F723E021
:1022600030E041E150E060EE72E0802F0E94E7260E
:10227000105F6096143B41F7DF91CF911F910F9152
:1022800008958091F402882329F066EF72E084E7D4
:102290000E941C111092F4028091F502882329F00B
:1022A00066E873E087E70E941C111092F50208951A
:1022B000E0EEF2E06083418323E030E042E050E072
:1022C000BF01880F0E94E7260895A0E0B0E0EBE68A
:1022D000F1E10C942B27262F30E0A901465C5B4FDF
:1022E0007A01FA019081911107C0F7011082CDB7F0
:1022F000DEB7E7E00C944727D82EF2E16F9FE001AC
:10230000112400E010E0F801EC0FFD1FEA5EFB4F26
:102310004081602F8D2D0E9458110F5F1F4F023199
:10232000110589F7E2CFCF93DF93C82F4BE06DEF14
:102330000E94581140E06AE08C2F0E9458118FE3F0
:102340009CE90197F1F700C0000040E060E08C2FAD
:102350000E94581140E061E08C2F0E94581140E02B
:1023600066E08C2F0E94581140E06DEF8C2F0E9488
:102370005811D0E040E06D2F8C2F0E945811DF5F84
:10238000D231C1F740E06D2F8C2F0E945811DF5FD2
:10239000D432C1F740E06D2F8C2F0E945811DF5FBF
:1023A000D43BC1F74BE06DEF8C2F0E94581141E0F8
:1023B0006AE08C2F0E94581140E06DEF8C2F0E9434
:1023C0005811DF91CF910895A4E0B0E0EAEEF1E179
:1023D0000C9424270E941B2684E70E94931187E710
:1023E0000E94931109EB15E072E1772EE8E0CE2E02
:1023F000D12CEE24E394F12C6624639444E050E065
:10240000B801CE0101960E9457272A8130E0C90108
:102410008497AB80B12C44E2A41AB108EC81F0E0BF
:10242000B497AC0197FF02C0495F5F4F63E05595D9
:1024300047956A95E1F72981237030E0729EB001DB
:10244000739E700D11246A5E7B4F4B01840E911CAC
:10245000B6010E94B827D70102C0AA0FBB1F8A95F8
:10246000E2F7CD01D4019C91892B8C93C501B7FC77
:10247000079653E0959587955A95E1F7729EA001CE
:10248000739E500D11244A5E5B4F4A01880E911CC9
:10249000C501B6010E94B827A70102C0440F551F0D
:1024A0008A95E2F7CA01D4019C91892B8C93CF01C4
:1024B000F7FD079643E0959587954A95E1F7729E5B
:1024C000A001739E500D11244A5E5B4F5A01A80E65
:1024D000B11CCF01B6010E94B827F70102C0EE0F70
:1024E000FF1F8A95E2F7CF01D5019C91892B8C9330
:1024F000F901E65CFB4F60820C5F1F4FB6E00937C5
:102500001B0709F07BCF60E084E70E94651161E062
:1025100087E70E9465112496EEE00C944027E0E8DE
:10252000F4E0438120E1421B08F440E081816281B4
:1025300090E00E94E6150895E0E8F4E0438120E190
:10254000420F08F44FEF8181628190E00E94E6150E
:102550000895E0E8F4E0628120E1621B08F460E0A5
:102560008181438190E00E94E6150895E0E8F4E05F
:10257000628120E1620F08F46FEF8181438190E076
:102580000E94E6150895E0E8F4E0818190E043813F
:10259000628108970E94E6150895E0E8F4E08181E1
:1025A00090E04381628108960E94E615089580912B
:1025B000800486958695815009F482E00E94C415B6
:1025C000089580918004869586958F5F833008F00A
:1025D00081E00E94C41508952091E4003091E50047
:1025E00095E64091EC00842F817040FF23C08091DC
:1025F000E80080FD1DC080917504882399F0853026
:1026000099F08091EB0085FD11C04091E40050915C
:10261000E5002417350729F3915011F09A01E1CF15
:1026200084E0089582E0089583E0089581E00895AC
:1026300080E008954091E80042FFDDCF0895809149
:10264000770487FF11C08091E80082FD05C080916A
:1026500075048111F8CF11C08091E8008B770BC011
:1026600080917504882349F08091E80080FFF8CFBD
:102670008091E8008E778093E8000895982F973036
:1026800068F59093E900981739F07091EC0020916B
:10269000ED005091F00003C0242F762F50E021FD73
:1026A00002C09F5FECCF3091EB003E7F3093EB0098
:1026B0003091ED003D7F3093ED003091EB003160C3
:1026C0003093EB007093EC002093ED005093F000FA
:1026D0002091EE0027FDE5CF80E008958F70809374
:1026E000E90081E0089520917D0430917E04261751
:1026F000370748F06115710539F42091E8002E770D
:102700002093E80001C0B901FC0120E061157105CA
:1027100079F1809175048823F1F18530F1F1809190
:10272000E80083FD3CC08091E80082FD2EC08091CE
:10273000E80080FFEBCF2091F3008091F20090E061
:10274000922B6115710551F08830910538F4219173
:102750002093F100615071090196F3CF21E00897B1
:1027600009F020E08091E8008E778093E800CECFDA
:102770002111CFCF0AC080917504882361F0853084
:1027800061F08091E80083FD0AC08091E80082FF3B
:10279000F2CF80E0089582E0089583E0089581E01B
:1027A000089578941F920F920FB60F9211248F9371
:1027B0009F93AF93BF938091460490914704A0915B
:1027C0004804B09149040196A11DB11D80934604AF
:1027D00090934704A0934804B0934904BF91AF91EC
:1027E0009F918F910F900FBE0F901F9018959C0195
:1027F0004FB7F8948091460490914704A091480403
:10280000B09149044FBF821B930B08952FB7F894E2
:102810006091460470914704809148049091490466
:102820002FBF08952FB7F8948091460490914704E4
:10283000A0914804B09149042FBF08951F920F92B0
:102840000FB60F9211248F939F93AF93BF938091F4
:102850004504811113C08091460490914704A091D2
:102860004804B09149044196A11DB11D80934604CE
:1028700090934704A0934804B0934904BF91AF914B
:102880009F918F910F900FBE0F901F9018952091E0
:102890000B012223C9F020914A0427FF15C0262FDF
:1028A0002695269526952E31C8F4FC01E20FF11DE0
:1028B000677081E090E001C0880F6A95EAF7809523
:1028C0009281892382830895FC01069622816213F6
:1028D00001C012823196E817F907C1F708952091D7
:1028E0004304309144042817390771F0909344044D
:1028F00080934304E0914104F0914204309721F029
:102900000084F185E02D0995089520913F043091D0
:1029100040042817390771F09093400480933F04D6
:10292000E0914104F0914204309721F00680F78154
:10293000E02D09950895E0914104F091420430970B
:1029400029F00190F081E02D0995089580E0089527
:10295000CF93DF93EC01EA85FB85309719F06C8506
:102960007D8509958B810E94A30C8C810E94AA0C05
:102970000E94B10C86E0FE0111928A95E9F7DF9181
:10298000CF910895CF93DF93EC018D8181FD18C025
:1029900082608D8390913C048B81892B80933C04D1
:1029A000909150048C81892B809350040E94B10C2B
:1029B000E885F985309721F06C857D85CE010995F4
:1029C00010923E0410923D048D8180FD03C0CE0123
:1029D0000E94A814DF91CF910895882311F0FA0185
:1029E00001C0FB01099508950E94E41180E090E088
:1029F0000E947E27883E9E4F21F00E94270C0E9455
:102A0000812246E050E06CE170E080E894E00E94B2
:102A1000602710927F04809180048C7F11F40E94C3
:102A2000812208958F929F92AF92BF92CF92DF92B0
:102A3000EF92FF92C090D302D090D402E090D502E2
:102A4000F090D6028FB7F894809046049090470497
:102A5000A0904804B09049048FBF0E940614AB01B7
:102A6000BC014093D3025093D4026093D50270937B
:102A7000D6028091DB029091DC02A091DD02B09140
:102A8000DE02880D991DAA1DBB1D8C199D09AE097A
:102A9000BF098093DB029093DC02A093DD02B09328
:102AA000DE022091DF02211109C021E0813C974222
:102AB000A940B10508F420E0822F01C081E080FD2B
:102AC00008C080918004982F937019F086958695A0
:102AD00001C080E090910C01913091F028F092308B
:102AE00091F09330E9F047C0109208014093D7026B
:102AF0005093D8026093D9027093DA0281E00DC03E
:102B00000E94822138C080930701809180048370E5
:102B1000809306010E94411183E080930C012BC039
:102B200080917F04882351F046E050E06CE170E032
:102B300080E894E00E94842710927F044091D7029D
:102B40005091D8026091D9027091DA022FB7F894AF
:102B50008091460490914704A0914804B0914904A3
:102B60002FBF841B950BA60BB70B4A97A105B10588
:102B700010F010920C01FF90EF90DF90CF90BF907B
:102B8000AF909F908F900895909180049370A1F0E2
:102B9000811102C0946007C0833010F0986003C0B8
:102BA000880F880F982B9093800410920C018091CD
:102BB0007F04816080937F04089583E390E00E9406
:102BC000D31E83E390E00E949C1E089590918004A0
:102BD000937059F08093810460938204409383043E
:102BE00080917F04816080937F040895EF92FF922B
:102BF0000F931F93CF93DF937C018B010E94EC1204
:102C0000811119C0E70101151105A1F08091E800BB
:102C100085FD0AC08091E8008E778093E8000E94CD
:102C2000EC12882381F307C089918093F100015051
:102C30001109E9CF80E0CDB7DEB7E6E00C94482774
:102C4000AAE2B0E0E6E2F6E10C942F27E7E7F4E031
:102C50008FE794E02091F10021938E179F07D1F721
:102C600080917804833009F463C030F4813071F0CE
:102C7000823009F49FC0B6C08A3009F48BC08B3013
:102C800009F46EC0893009F0ADC020C0809177048E
:102C9000813A09F0A7C08091E800877F8093E8001F
:102CA00080917B0490917C04892B21F460E283E580
:102CB00094E003C060E080E090E070E00E94731355
:102CC0008091E8008B778093E8008CC08091770436
:102CD000813209F087C080917B0490917C04009739
:102CE00019F0029709F07EC08091E800877F8093F9
:102CF000E8008091E80082FD05C080917504811193
:102D0000F8CF70C02091F3008091F20090E0922BF8
:102D1000029731F48091F100813011F0863021F476
:102D20008091F100809352048091E8008B7756C027
:102D300080917704813A09F055C080917B0490918D
:102D40007C04892B09F04EC08091E800877F809336
:102D5000E8008091E80080FFFCCF80910B0139C032
:102D6000809177048132F1F580917B0490917C040D
:102D7000892BC1F58091E800877F8093E8000E944D
:102D80001F138091790480930B01109250040E94CC
:102D9000F32428C080917704813221F58091E800E6
:102DA000877F8093E8000E941F1380917A048093AC
:102DB000510418C080917704813AA1F48091E80011
:102DC000877F8093E8008091E80080FFFCCF8091AE
:102DD00051048093F1008091E8008E778093E800A1
:102DE0000E941F138091E80083FFD9C1809177046E
:102DF00090917804492F50E04A30510508F0CFC136
:102E0000FA01EE59FF4F0C94CC27803821F082381C
:102E100009F0C5C108C0809173049091740499238E
:102E200089F082600FC080917B048F70873008F03A
:102E3000B6C18093E9008091EB0085FB882780F97B
:102E40001092E9009091E800977F9093E8008093BA
:102E5000F1001092F1006FC1282F2D7F09F09FC162
:102E6000882319F0823061F09AC180917904813011
:102E700009F095C1933009F080E0809374042EC06E
:102E80008091790481112AC080917B048F702FEF8B
:102E9000280F263008F083C18093E9002091EB00D1
:102EA00020FF1CC0933021F48091EB00806214C09D
:102EB0009091EB0090619093EB0021E030E0A9014C
:102EC00002C0440F551F8A95E2F74093EA00109222
:102ED000EA008091EB0088608093EB001092E9009B
:102EE0008091E800877F8093E8000E941F1357C1FC
:102EF000811155C1109179041F778091E30080788A
:102F0000812B8093E3008091E800877F8093E80025
:102F10000E941F138091E80080FFFCCF8091E300A6
:102F200080688093E300111102C082E001C083E059
:102F30008093750434C18058823008F030C12091EC
:102F4000790430917A042C3D53E0350779F583E01C
:102F50008A838AE289834FB7F894DE01139620E0D2
:102F60003EE051E2E32FF0E050935700E49120FF60
:102F700003C0E295EF703F5FEF708E2F90E0EA3074
:102F800010F0C79601C0C0968D939D932F5F24319A
:102F900049F74FBF8091E800877F8093E8006AE29D
:102FA00070E0CE0101960E947313B4C080917B043F
:102FB00090917C04432F552743305105A9F068F4C4
:102FC0004130510509F4FAC04230510509F0E7C01B
:102FD00084E590E0EDE6F7E04BC04132510529F180
:102FE0004232510589F1DBC0C90199278130910531
:102FF000A1F058F0029709F0D2C0E3EDF7E0E491B8
:103000008E2F90E0E3EDF7E030C0EFE1F8E0E491DF
:103010008E2F90E0EFE1F8E028C0E5EFF7E0E491D3
:103020008E2F90E0E5EFF7E020C08330910508F0A7
:10303000B6C0880F991FFC01EA59FE4F0190F0813C
:10304000E02D89E090E014C08330910508F0A7C01E
:10305000FC01EE0FFF1FE05AFE4F0190F081E02DC2
:10306000DC01A35ABE4F8C9190E0009709F497C001
:103070002091E800277F2093E80020917D04309183
:103080007E042817390708F4C90140E0009789F148
:1030900020917504222309F43DC02530D9F12091F7
:1030A000E80023FD37C02091E80022FD2FC02091C9
:1030B000E80020FFEBCF4091F3002091F20030E0D8
:1030C000342B009759F02830310540F44491409357
:1030D000F100319601972F5F3F4FF3CF41E0283049
:1030E000310509F040E02091E8002E772093E800B8
:1030F000CDCF4111CDCF0AC080917504882351F006
:10310000853041F08091E80083FD04C08091E800A3
:1031100082FFF2CF8091E8008B778093E8003FC078
:103120008038E9F58091E800877F8093E8008091FE
:1031300076048093F1008091E8008E77D4CE8111DF
:103140002EC08091790490917A04992702973CF5DA
:103150008091E800877F8093E800109179041093B4
:1031600076040E941F13111106C08091E30087FDB1
:1031700002C081E001C084E08093750442E061EC0C
:1031800081E00E943E1342E061EC82E00E943E1327
:1031900042E261EC83E00E943E13809175048091CD
:1031A000E80083FF10C08091E800877F8093E800EB
:1031B0008091EB0080628093EB0005C082E190E09B
:1031C000E1ECF7E055CFAA96E3E00C944B271F9271
:1031D0000F920FB60F9211242F933F934F935F934B
:1031E0006F937F938F939F93AF93BF93CF93DF930F
:1031F000EF93FF93C091E900CF708091EC00D82F3E
:10320000D17080FDD0E81092E9008091F000877FB6
:103210008093F00078940E9420161092E90080912B
:10322000F00088608093F000CD2BCF70C093E90050
:10323000FF91EF91DF91CF91BF91AF919F918F91CE
:103240007F916F915F914F913F912F910F900FBEA2
:103250000F901F901895E8EDF0E080818E7F8083BD
:103260001092E2001092DA001092E100A0EEB0E0BD
:103270008C9181608C9380818F77808319BCA7EDBE
:10328000B0E08C918E7F8C9380818F7E80831092B2
:103290004F040895A0E0B0E0E0E5F9E10C942A279E
:1032A000C8EDD0E088818F7E8883E7EDF0E08081F3
:1032B0008160808384E082BF81E080934F048881B5
:1032C0008E7F888302EE10E0F80110821092DA00FF
:1032D00081EEC82ED12CF601108288818F778883E9
:1032E00088818068888388818F7D888319BC10924B
:1032F000750410927604109274041092730490EE88
:10330000E92EF12CF70180818B7F80838881816099
:10331000888342E060E080E00E943E13F6018081F5
:103320008E7F8083F80180818160808380818860C6
:103330008083F70180818E7F80838881806188838C
:10334000CDB7DEB7E8E00C9446271F920F920FB678
:103350000F9211242F933F934F935F936F937F931B
:103360008F939F93AF93BF93EF93FF938091E1006F
:1033700082FF09C08091E20082FF05C08091E100D8
:103380008B7F8093E1008091DA0080FF2AC08091DA
:10339000D80080FF26C08091DA008E7F8093DA000B
:1033A0008091D90080FF18C080E189BD82E189BD8C
:1033B00009B400FEFDCF81E08093750480914F0435
:1033C00081110FC00E942B190E944A198091E200BE
:1033D00084608093E20005C019BC109275041092BD
:1033E0004F048091E10080FF17C08091E20080FFD0
:1033F00013C08091E2008E7F8093E2008091E20012
:1034000080618093E2008091D80080628093D80030
:1034100019BC85E0809375048091E10084FF30C081
:103420008091E20084FF2CC080E189BD82E189BDEA
:1034300009B400FEFDCF8091D8008F7D8093D80025
:103440008091E1008F7E8093E1008091E2008F7E89
:103450008093E2008091E20081608093E20080919D
:103460007604882311F084E007C08091E30087FD93
:1034700002C081E001C083E08093750480917504EF
:103480008091E10083FF27C08091E20083FF23C089
:103490008091E100877F8093E10082E08093750452
:1034A000109276048091E1008E7F8093E1008091FC
:1034B000E2008E7F8093E2008091E2008061809341
:1034C000E20042E060E080E00E943E138091F00064
:1034D00088608093F000FF91EF91BF91AF919F9131
:1034E0008F917F916F915F914F913F912F910F90AD
:1034F0000FBE0F901F901895AFE0B0E0E2E8FAE140
:103500000C94202785B7806885BF85B7806885BF04
:1035100084B7877F84BF0FB6F894A8958091600028
:10352000886180936000109260000FBE90E080E898
:103530000FB6F89480936100909361000FBE8DE206
:103540009AE090935102809350020E942B190E949E
:103550004A198091E20084608093E200789480911F
:1035600075048823A1F01091E9001F709091EC0080
:10357000892F817090FD80E8182B1092E9008091CE
:10358000E80083FD0E9420161F701093E90082E07E
:1035900084BD93E095BD9AEF97BD80936E000E9425
:1035A0004C1F90E090931A01809319010E9487208C
:1035B0000E94CD20ECE8F4E0ADE9B4E011921D9258
:1035C00024E0EA39F207D1F78EE090E00E94D2279A
:1035D0008093860490938704FC010E961192E8175D
:1035E000F907E1F789EA8093800089E08093810000
:1035F00024982C983F988AB18F7C8AB96E98479A04
:103600008BB180638BB9769A8FE090E00E94782727
:10361000609388047093890480938A0490938B0448
:1036200067703FEF639FB00111247595679575959D
:1036300067957727709389006093880070938B005B
:1036400060938A0070938D0060938C000E94C31F6A
:1036500080E090E00E947E27883E9E4F11F00E94FD
:10366000270C82E090E00E9470278093AB0484E0F6
:1036700090E00E947027182F82E290E00E9470274D
:10368000212F30E0382B30934B0420934A0483E001
:1036900090E00E9470270E94B72480919A040E94B3
:1036A000221F0E94F41480918004837011F4109200
:1036B0000C01809180048C7F8160809380048DE078
:1036C00091E0909342048093410458E1A52EB12CDF
:1036D0006BEA862E64E0962E01E04AEBC42E44E0AD
:1036E000D42E80917504853009F070C020E4F22E4C
:1036F00033E0E32E10E180917504853009F05EC05F
:1037000080917504843009F437C00E9412158091AD
:10371000DF0281110DC00E94822110920701809169
:1037200080048370809306010E944111E0920C0195
:1037300081E08093DF02109245040FB6F894A895BB
:10374000A09260000FBEF092600083B7817F84601A
:1037500083BF83B7816083BF7894889583B78E7F5A
:1037600083BF0FB6F894A89580916000886180931C
:103770006000109260000FBE80917404882309F4E9
:10378000BACF0E944C1F90E090931A0180931901C8
:103790000E9487200E94CD20EDE9F4E011928E1660
:1037A0009F06E1F70E94390FEDE9F4E08191811164
:1037B00095C124E0EB3AF207C9F79DCF109250046F
:1037C0000E94F3240E949B141092DF020E94390F82
:1037D0009CEAE92E94E0F92EADE9B4E0F70191916D
:1037E0008D918927CE16DF0619F08823C1F322C0F8
:1037F000811120C00E9412147C0180919B04909141
:103800009C04E816F90609F452C08FEF8E838F836B
:1038100018860E9412148160782F9A8789874E81BA
:103820005F8168858A850E94E51DF0929C04E09284
:103830009B043DC08DE9682E84E0782E10E0F301F2
:1038400021903F01F7013080322449F1512C44246A
:103850004394832D8421E1F05B861C8791E0822DC7
:10386000842109F490E09D870E9412148160782FD2
:103870009F878E874B855C856D858F850E94E51DB2
:103880001092DB021092DC021092DD021092DE0236
:103890005394440CF6E05F12DCCFF70120821F5FE7
:1038A000FFEFEF1AFF0A1E3051F60E9406148091B6
:1038B0003D0490913E04892BC9F08091BA04909107
:1038C000BB040E94F713813A910580F080913D047A
:1038D0002EE0829FC0011124FC01E05EFE4F20819A
:1038E00022FD04C0855E9E4F0E94C2140E941215E4
:1038F00085E0E7ECF4E0DE01119601900D928A95E7
:10390000E1F71092C8041092C9041092CA041092F0
:10391000CB041A81111104C08B81882309F450C093
:103920008091C5049091C6040E94F7139C01909168
:10393000C104992309F4EBC02531310508F440C0D6
:103940009F3F19F09F5F9093C104112361F00E9483
:103950003123111614F491E001C09FEF899F802D4F
:1039600011248093C8041B81112361F00E9431232C
:10397000111614F491E001C09FEF899F802D11244E
:103980008093C9043091C8043323D1F02091C90435
:103990002223B1F045EB3403C0011124992319F01F
:1039A0009093C80402C00093C80435EB2303C00100
:1039B0001124992319F09093C90402C00093C904FB
:1039C0001C81111104C08D81882309F450C080919D
:1039D000C3049091C4040E94F7139C019091C00409
:1039E000992309F498C02531310508F440C09F3F60
:1039F00019F09F5F9093C004112361F00E9413237C
:103A0000111614F491E001C09FEF899F802D1124BD
:103A10008093CA041D81112361F00E9413231116A3
:103A200014F491E001C09FEF899F802D11248093B1
:103A3000CB043091CA043323D1F02091CB0422234C
:103A4000B1F045EB3403C0011124992319F0909390
:103A5000CA0402C00093CA0435EB2303C001112439
:103A6000992319F09093CB0402C00093CB0445E056
:103A700050E0BE016F5F7F4F87EC94E00E94F32817
:103A8000892BA9F48091C80481110FC08091C904C9
:103A900081110BC08091CA04811107C081E090910F
:103AA000CB04911103C080E001C081E080FD0E9441
:103AB000AF2385E0FE013196A7ECB4E001900D92B2
:103AC0008A95E1F70E949B149091BC04891709F430
:103AD00008CE8093BC040E940614FFCD19BD82E17C
:103AE00089BD09B400FEFDCF8091D8008F7D809301
:103AF000D8008091E00082608093E0008091E00037
:103B000081FDFCCF109250040E94F324F4CD232BAE
:103B100009F018CF55CF2139314008F06ACFA7CF2F
:103B2000982F92959F7019F0892F24E001C020E012
:103B3000982F9695969511F02E5F892F982F969530
:103B400009F02F5F822F08959C013A9521153F417E
:103B500030F5BC0166277270AC01442754709C019B
:103B60002227387094FF0FC090FF02C080E101C08F
:103B700080E0672B09F08062452B09F08064232BDD
:103B800079F080680895892F8170672B09F0826031
:103B9000452B09F08460232B19F08860089580E09C
:103BA0000895CF93DF93EC018A81833031F40E9432
:103BB000DD150E94DD150E94DD158A81843010F02C
:103BC0000E94DD15DF91CF910895A7E1B0E0EBEE03
:103BD000FDE10C942F274B8B5C8B6D8B7E8B8F8B39
:103BE000611110923C0486E09E01235F3F4FD90192
:103BF000E82F1D92EA95E9F795E0FE017396D90149
:103C000001900D929A95E1F79C894E895F897B8995
:103C10007D879E876F87598B488BF901DE01179648
:103C200001900D928A95E1F7CE0107960E94B20DA0
:103C300081113EC086E0FE013796DE0111960190AB
:103C40000D928A95E1F7FF81E8856A857B8561158C
:103C5000710531F0EF3F31F481E0FF3F19F403C00B
:103C600081E001C080E080FD23C02091780230E037
:103C7000C9010196877099274091A90250E08417E5
:103C8000950779F1F983EA837D836C8396E0929FAF
:103C9000D001939FB00D1124A758BD4FFE0131965E
:103CA00001900D929A95E1F7809378020E943F0D62
:103CB00016E08091A90290917802891709F1189F66
:103CC000C001112487589D4F0E94B20D8823C1F076
:103CD0008091A90290E00196877099278093A902AC
:103CE000E8CF109250040E94F324109278021092B0
:103CF000A902E2E7F2E086E0DF011D928A95E9F78A
:103D00006796E3E00C944B27109250040E94F32432
:103D10002FEF84E39CE0215080409040E1F700C009
:103D200000009AE088E10FB6F894A89580936000AF
:103D30000FBE90936000FFCFCF93DF93EC010E9402
:103D40002925CE01805E9109089710F0209731F463
:103D5000CE010E94A41D0E94182505C0CE010E941C
:103D6000A41D0E940725DF91CF9108958FE39CE960
:103D70000197F1F700C000008091BF04823049F044
:103D800018F4813049F00CC0833031F0853021F0D7
:103D900007C083E392E002C083E390E00E949C1E90
:103DA0001092BF040895CF93DF93EC01805E9109D8
:103DB000089710F0209731F4CE010E94A41D0E94B4
:103DC0001F2505C0CE010E94A41D0E940E258C2F28
:103DD0000E945E25DF91CF910895FC019281913080
:103DE00039F4858182FD12C080FF10C092E00EC0C0
:103DF000923039F4858182FD06C080FD06C093E0D3
:103E000005C096E003C095E001C094E09093BF0424
:103E1000923049F018F4913081F00895933031F0E8
:103E2000953049F0089583E392E009C083E390E080
:103E30000E94D31E02C00E94DD1583E390E00E9421
:103E4000D31E0895CF93C82F0E94901D56985E9858
:103E500025982D9826982E9827982F9890E0FC0169
:103E60003197E730F105A8F4E459FF4F0C94CC27C3
:103E7000259A2D9A0EC0259A2D9A269A2E9A09C017
:103E8000259A2D9A04C0259A2D9A269A2E9A279A19
:103E90002F9A8C2FCF91089580E290E090931A0191
:103EA000809319018091BD0481110EC00E941B26D0
:103EB00081E08093BD042FEF83ED90E3215080409B
:103EC0009040E1F700C0000060E570E080E40E94EF
:103ED000212690931A0180931901892B09F04EC075
:103EE00060E570E080E00E94942690931A01809330
:103EF0001901892B09F042C060E570E080E00E9462
:103F0000942690931A0180931901892BB9F560E5E5
:103F100070E08FE30E94942690931A018093190118
:103F2000892B61F50E94082760E570E080E40E941B
:103F3000212690931A0180931901892BF9F460E5E9
:103F400070E08CE00E94942690931A0180931901EE
:103F5000892BA1F460E570E080E00E9494269093A4
:103F60001A0180931901892B49F460E570E08FE311
:103F70000E94942690931A01809319010E940827A9
:103F8000809119010895CF93DF9356985E982598F4
:103F90002D9826982E9827982F98C8E8D0E08FEF74
:103FA00090E099838883AAE8B0E011969C938E9361
:103FB000ECE8F0E091838083259A2D9A2FEF80E73B
:103FC00092E0215080409040E1F700C00000269A26
:103FD0002E9A2FEF80E792E0215080409040E1F749
:103FE00000C00000279A2F9A2FEF80E792E021501F
:103FF00080409040E1F700C0000025982D982FEFF9
:1040000080E792E0215080409040E1F700C000003E
:1040100026982E982FEF80E792E021508040904024
:10402000E1F700C0000027982F98809188048770DE
:104030002FEF829FC00111249595879595958795BF
:1040400099279983888311969C938E93918380837B
:1040500056985E9825982D9826982E9827982F98F0
:10406000DF91CF910895CF93E82F873080F580912D
:10407000190190911A01892B09F047C0CE2F60E5F4
:1040800070E080E40E94212690931A018093190128
:10409000892BD1F460E570E082E10E949426909330
:1040A0001A0180931901892B79F481E090E001C015
:1040B000880FCA95EAF760E570E080950E94942623
:1040C00090931A01809319010E9408271EC090E066
:1040D000FC013797E730F105C0F4ED58FF4F0C9421
:1040E000CC27209A289811C0219A29980EC0229A8C
:1040F0002A980BC0239A2B9808C0529A5A9805C048
:10410000539A5B9802C03E9A4698CF9108952098A2
:1041100028982198299822982A9823982B98529881
:104120005A9853985B983E9846980895CF93873055
:1041300040F58091190190911A01892B59F560E59C
:1041400070E081E40E94212690931A018093190166
:10415000892B11F0C0E011C080E590E00E94C326D9
:1041600097FF05C090931A0180931901F3CFC82FD0
:10417000C09510921A01109219010E9408278C2FE5
:104180000AC09FB18FB1807F869586959370892BE9
:10419000809501C080E0CF9108958098889A819899
:1041A000899A84988C9A85988D9A86988E9A879801
:1041B0008F9A0895A22F50E0FA01EE0FFF1FEF53E0
:1041C000FE4F9081905297FD9195440F551FFA0133
:1041D000E054FE4F3081232F30E02A1B3109290F94
:1041E000311D97FD3A95620F0895A0E0B0E0EBEF26
:1041F000F0E20C942A27F62E472FE82FF0E07111F9
:1042000006C0ED5DF74F8491782F682F73C0272F7C
:1042100030E0ED5DF74FE491FE2F0E2F10E056E0F9
:10422000659FC0011124CFEFD0E0BE010E940C2792
:104230005BEA5603C001579F900D11248F0D911D0D
:104240008F0D911D982F990F980F7E01E21AF30A96
:10425000E09ED001E19EB00DF09EB00D11248B2F99
:10426000499FA0011124452F55277E01E41AF50A24
:10427000E09EA001E19E500DF09E500D11246E01B4
:10428000C91AD108C29E7001C39EF00CD29EF00CD8
:1042900011242F2D3327C21BD30BC09F9001C19F28
:1042A000300DD09F300D1124932F6230710591F0A5
:1042B00048F461157105E1F061307105B9F49E2F84
:1042C000E52F16C06430710569F040F06630710565
:1042D00079F00CC09E2FEB2F832F0AC0EB2F8F2F6E
:1042E000952F06C09B2F8E2FE32F02C09B2F852F6B
:1042F0007E2F692FCDB7DEB7E8E00C9446270E94E9
:1043000003110895EF92FF920F931F93CF93DF93C2
:10431000D82F809107018D130DC020918004237048
:1043200030E04091060150E081E02417350719F490
:1043300080E001C081E0817080930A018091850452
:1043400090910901981739F08093090140E060E0ED
:1043500080E00E947F21D13071F580910801C82F43
:10436000CC0FCC0FC80F15E01C0F113308F010E371
:104370006091810470918204809183040E94F520F1
:10438000062FF72EE82EC11790F4EC2FF0E0DF0196
:10439000A05EBD4F8C9190910901982331F02E2D94
:1043A000402F6F2DCF010E94C510CF5FECCF81E071
:1043B000103368F00BC0D130F0F480910A018823EB
:1043C00029F040E060E080E00E947F2180E0909151
:1043D00008019F5F9093080181118EC082E0809355
:1043E0000C0180910A01811187C0D11185C083E041
:1043F00080930C0181C0D23009F045C08091080142
:10440000C82FCC0FCC0FC80F05E00C0F013308F0FC
:1044100000E3309184043695369521E0320F08F49C
:104420003FEF4091D7025091D80280E090E0439F47
:10443000812D539F800D911D1124182FC017F0F46A
:10444000EC2EF12CF701E05EFD4F90818091090187
:10445000892391F06091810470918204809183049A
:10446000212F4C2F0E94DA200E94F520462F282F62
:10447000672FC7010E94C510CF5FE0CF81E00033F6
:1044800008F4A5CFA3CFDF3F89F58091D7029091A3
:10449000D802A091D902B091DA0288279C70AA278D
:1044A000BB272AE0B695A795979587952A95D1F7CA
:1044B00082309105A105B10571F083309105A10508
:1044C000B10569F040E00197A105B10511F060E088
:1044D00008C064E102C044E160E080E003C044E160
:1044E00064E184E10E947F2182E082CF8091080113
:1044F0008F5F8093080172CFCDB7DEB7E6E00C94F2
:104500004827E0E8F4E085E08083809129019091DC
:104510002A01A0912B0181839283A3838CE384835E
:104520008FEF858346E050E06CE170E0CF010E94A0
:10453000842710927F0408958D3E39F49091C90428
:1045400097FF35C01092C90459C08E3E29F490914E
:10455000C9041916BCF32BC09091C8048F3E29F4EE
:1045600097FF25C01092C80449C0803F19F419165E
:10457000CCF31DC09091CA04893F29F41916BCF4EC
:104580001092CA043BC08A3F19F497FF10C0F8CFBD
:104590008B3F39F49091CB0497FF09C01092CB0464
:1045A0002DC08C3F21F49091CB041916BCF39FE0F1
:1045B000980F983080F421E030E0A90102C0440F48
:1045C000551F9A95E2F7CA0180959091C7048923F7
:1045D0008093C70413C08D3F21F48091C2048E7F65
:1045E0000BC08E3F21F48091C2048D7F05C08F3FA8
:1045F00029F48091C2048B7F8093C2048091C80407
:10460000811106C08091C904811102C01092C104B9
:104610008091CA04811106C08091CB04811102C02F
:104620001092C00408958091C20480FD16C081FDDF
:1046300014C082FD14C08091C004882371F08D32B3
:1046400070F423E0829FC00111246DE270E00E94AB
:10465000B827862F672B09F0089581E0089583E03D
:1046600008958091C20480FD17C081FD17C082FDAE
:1046700019C08091C104882399F08D3298F428E103
:10468000829FC00111246DE270E00E94B827862F3E
:10469000672B49F481E0089586E008958CE0089541
:1046A00088E0089588E108958D3E21F40E94312329
:1046B000819504C08E3E29F40E9431238093C90461
:1046C00008958F3E21F40E943123819504C0803FDC
:1046D00029F40E9431238093C8040895893F19F476
:1046E0000E94132305C08A3F31F40E941323819551
:1046F0008093CA0408958B3F21F40E94132381956F
:1047000004C08C3F29F40E9413238093CB040895A6
:104710009FE0980F983078F421E030E0A90102C0C2
:10472000440F551F9A95E2F7CA019091C704892B4F
:104730008093C70408958D3F21F48091C204816065
:104740000BC08E3F21F48091C204826005C08F3F70
:1047500029F48091C20484608093C20408950E9469
:1047600012142091C804211104C02091C9042223ED
:1047700021F09093C6048093C5042091CA042111AE
:1047800004C02091CB04222321F09093C404809391
:10479000C304E0914104F0914204309731F0048069
:1047A000F581E02D87EC94E00995089580E090E094
:1047B0000E94851480E090E00E946F1410923C04E7
:1047C0000E94B10CE7ECF4E085E0DF011D928A95D0
:1047D000E9F71092C1041092C0041092C2040E9422
:1047E000AF230895CF92DF92FF920F931F93CF9341
:1047F000DF936C0100919A048091CC02082BC7E0F2
:10480000D0E010E0C8010C2E02C0959587950A945F
:10481000E2F780FD04C02197A8F7F12C09C0FC2E17
:10482000B6018C2F0E94720A0E948B0A019799F39D
:104830008F2DDF91CF911F910F91FF90DF90CF903F
:104840000895CF93DF93EC010E94F223BE010E94F2
:10485000720A0E948B0ADF91CF910895292F9E3012
:1048600078F5863068F590E036E0239F800D911D45
:104870001124682F677023E0969587952A95E1F7B4
:10488000FC01EE0FFF1FE80FF91FE453FB4F40E060
:1048900050E080E0219130E0062E02C03695279549
:1048A0000A94E2F721703327042E01C0220F0A94E4
:1048B000EAF7822B4F5F5F4F4330510559F7089558
:1048C00080E00895292F9E3088F5863078F590E0B5
:1048D00036E0239F800D911D1124282F277051E071
:1048E00001C0550F2A95EAF723E0969587952A95FA
:1048F000E1F7FC01EE0FFF1FE80FF91FE453FB4F38
:1049000020E030E070E04081CB01022E02C096959D
:1049100087950A94E2F781708195842785238427FF
:1049200081932F5F3F4F2330310569F708950E942F
:10493000221F80939A040E94D623089521E030E03C
:1049400001C0220F8A95EAF7209580919A0482236C
:104950000E949724089521E030E001C0220F8A953B
:10496000EAF780919A04822B0E94972408958093FD
:10497000CC020E94D6230895CF93FC0180819181BF
:1049800023813481232B31F09F3F31F491E08F3F1D
:1049900019F403C091E001C090E0C92FC17090FDEF
:1049A0001CC0808191810E94212492959F70963035
:1049B00079F010F4925001C09A50923088F4803F00
:1049C00071F018F4883E60F40AC0843F49F407C0CF
:1049D000883E28F0813F21F402C0C0E001C0C1E060
:1049E0008C2FCF91089580910B01882331F0809115
:1049F0004A0487FF02C08EE101C086E0E4E5F2E0F0
:104A0000DF011D928A95E9F70E94D6230895882335
:104A100021F00E94A30C0E94B10C0895882339F064
:104A200090913C04892B80933C040E94B10C089522
:104A3000882321F00E94AA0C0E94B10C08958823BB
:104A400039F090915004892B809350040E94B10C4E
:104A50000895882391F19CEF980F913A30F4682FD4
:104A600082E592E00E9447140DC090E2980F9830C2
:104A700060F4877091E001C0990F8A95EAF7892F59
:104A80000E94AA0C0E94B10C08959BE5980F9330E8
:104A900028F480E090E00E948514089598E5980F2E
:104AA000973128F480E090E00E946F1408958D3EC5
:104AB00020F00E949C220E94AF230895CF93882368
:104AC00009F49FC0C82F8CEF8C0F813A08F05BC0AF
:104AD00080910B018823E1F080914A0487FF18C080
:104AE000EC2FE695E695E695F0E0EE5AFD4F8281D3
:104AF000282F30E04C2F477081E090E002C0880FF3
:104B0000991F4A95E2F782239323892B59F411C008
:104B1000E4E5F2E08191C81729F082E0EA35F80770
:104B2000C9F707C06C2F82E592E00E9447140E94EB
:104B3000B10C80910B018823B1F080914A0487FF6A
:104B400012C0EC2FE695E695E695F0E0EE5AFD4FA3
:104B5000C77081E090E001C0880FCA95EAF79281A2
:104B6000892B828320C0A4E5B2E0EFEF80E09D9125
:104B7000C917C9F0EF3F19F4911101C0E82F8F5FF9
:104B80008630A9F735C080E28C0F883078F4C77082
:104B900081E090E001C0880FCA95EAF79091500437
:104BA000892B809350040E94B10C2BC0EBE5EC0FD5
:104BB000E33040F4F0E0E45DFE4F808190E00E943D
:104BC00085141FC0E8E5EC0FE73150F4F0E0EE0F7C
:104BD000FF1FE15DFE4F808191810E946F1411C023
:104BE000CD3E78F08C2F0E9454230E94AF2309C041
:104BF000EF3FC9F20E2E000CFF0BEE5AFD4FC283A1
:104C0000D2CFCF9108951F93CF93DF93182FEB014D
:104C10000E945E25209741F08FE99FE00197F1F710
:104C200000C000002197F6CF812F0E942925DF9137
:104C3000CF911F9108951092B9008CE08093B80035
:104C40000895A0E0B0E0E7E2F6E20C942727B82E42
:104C5000EB010E9412146C01C431D10558F0CF3F12
:104C60008FEFD80759F0CE0164E170E00E940C2765
:104C70007B0107C0EE24E394F12C03C025E0E22E73
:104C8000F12C84E8A82E94EA992E1092BC00909200
:104C9000BC000E9412148C018091BC0087FD07C0EB
:104CA000C8010E94F713E816F906B0F729C08091F1
:104CB000B900887F883041F08091B900887F8031C9
:104CC00019F00FEF1FEF1EC0B092BB00A092BC0006
:104CD0000E9412148C018091BC0087FD07C0C8019E
:104CE0000E94F713E816F906B0F70AC08091B900E0
:104CF000887F883111F0803421F700E010E00EC089
:104D00000EEF1FEFCF3F8FEFD80709F4BECFC601DC
:104D10000E94F713C817D90708F0B7CFC801CDB75D
:104D2000DEB7EBE00C9443270F931F93CF93DF93F1
:104D3000EB018093BB0084E88093BC000E941214B6
:104D40008C018091BC0087FD0DC0CF3F8FEFD8074D
:104D5000C1F3C8010E94F713C817D90790F78EEF67
:104D60009FEF0CC02091B900287F81E090E02832AD
:104D700011F480E090E0919581959109DF91CF91B8
:104D80001F910F9108950F931F93CF93DF93EC0121
:104D900084E88093BC000E9412148C018091BC00B6
:104DA00087FD0DC0CF3F8FEFD807C1F3C8010E9428
:104DB000F713C817D90790F78EEF9FEF03C08091C4
:104DC000BB0090E0DF91CF911F910F910895A0E07B
:104DD000B0E0EDEEF6E20C942A276B018A0179012E
:104DE000B9010E942126E6010C0D1D1DC017D10737
:104DF00041F424E92093BC00CDB7DEB7E8E00C9481
:104E0000462797FDF6CFB70189910E949426EECFF1
:104E100084E98093BC000895AA1BBB1B51E107C025
:104E2000AA1FBB1FA617B70710F0A61BB70B881F3A
:104E3000991F5A95A9F780959095BC01CD010895C9
:104E40002F923F924F925F926F927F928F929F929A
:104E5000AF92BF92CF92DF92EF92FF920F931F9388
:104E6000CF93DF93CDB7DEB7CA1BDB0B0FB6F89439
:104E7000DEBF0FBECDBF09942A88398848885F8479
:104E80006E847D848C849B84AA84B984C884DF80EA
:104E9000EE80FD800C811B81AA81B981CE0FD11DCE
:104EA0000FB6F894DEBF0FBECDBFED010895FB0134
:104EB000DC0102C005900D9241505040D8F7089592
:104EC000DC01CB01FC01F999FECF06C0F2BDE1BDCA
:104ED000F89A319600B40D9241505040B8F70895B9
:104EE000F999FECF92BD81BDF89A992780B50895B2
:104EF000A6E1B0E044E050E00C946227A8E1B0E005
:104F000042E050E00C946227DC01A40FB51F415031
:104F1000504048F0CB01840F951F2E910E94952799
:104F200041505040D0F70895262FF999FECF92BDF9
:104F300081BDF89A019700B4021639F01FBA20BD5E
:104F40000FB6F894FA9AF99A0FBE08950396272F90
:104F50000E9495270E949427252F0E949527242F91
:104F60000C9495270196272F0E9495270C9494273F
:104F700097FB072E16F4009407D077FD09D00E9406
:104F80000C2707FC05D03EF4909581959F4F08951E
:104F9000709561957F4F0895EE0FFF1F0590F49176
:104FA000E02D09940F931F93CF93DF9382309105E7
:104FB00010F482E090E0E091EF04F091F00420E042
:104FC00030E0A0E0B0E0309719F1408151810281DA
:104FD000138148175907C8F08417950769F410978B
:104FE00031F012960C93129713961C9327C00093DE
:104FF000EF041093F00422C02115310519F0421777
:10500000530718F49A01BD01EF01DF01F801DBCF6E
:1050100021153105F9F0281B390B2430310580F4B6
:105020008A819B816115710521F0FB019383828345
:1050300004C09093F0048093EF04FE01329644C0C4
:10504000FE01E20FF31F81939193225031093983BE
:1050500028833AC02091ED043091EE04232B41F4D3
:1050600020910201309103013093EE042093ED046E
:1050700020910001309101012115310541F42DB736
:105080003EB74091040150910501241B350BE0917E
:10509000ED04F091EE04E217F307A0F42E1B3F0B92
:1050A0002817390778F0AC014E5F5F4F241735079A
:1050B00048F04E0F5F1F5093EE044093ED04819330
:1050C000919302C0E0E0F0E0CF01DF91CF911F911A
:1050D0000F910895CF93DF93009709F481C0FC01ED
:1050E000329713821282A091EF04B091F0041097CE
:1050F00081F420813181820F931F2091ED04309142
:10510000EE042817390751F5F093EE04E093ED040F
:1051100067C0ED0120E030E0CE17DF0740F44A81A0
:105120005B819E0141155105F1F0EA01F5CFD38372
:10513000C28340815181840F951FC817D90759F444
:1051400088819981840F951F0296918380838A813B
:105150009B81938382832115310529F4F093F00418
:10516000E093EF043DC0E901FB83EA834991599143
:10517000C40FD51FEC17FD0761F480819181840F66
:10518000951F0296E90199838883828193819B838D
:105190008A83E0E0F0E012968D919C91139700973E
:1051A00019F0FD01DC01F7CF8D919C9111979D01C4
:1051B0002E5F3F4F820F931F2091ED043091EE043C
:1051C0002817390769F4309729F41092F0041092E7
:1051D000EF0402C013821282B093EE04A093ED0498
:1051E000DF91CF910895FB01DC0104C08D91019006
:1051F000801921F441505040C8F7881B990B08953D
:04520000F894FFCF50
:105204000000F1042000FFFF00FF000103111084DF
:1052140010651060105B10101020000000000000EA
:1052240000D11DED1EB61E000000FFFF818283E247
:1052340000E900EA00B500B600B700CD008301CC58
:10524400008A0192019401210223022402250226EC
:105254000227022A02B300B4006F00700040476DB9
:105264002D07E60679067F079807B107FFFFFFFFC2
:10527400FFFF1C21262B2FFF1B20252A2EFF1A1F80
:1052840024292DFF191E23282CFF181D2227FFFF78
:10529400FFFFFFFFFFFFFFFFFFFFFFFF00050A0FF8
:1052A400FFFF01060B1014FF02070C1115FF030882
:1052B4000D1216FF04090E1317FFFFFFFFFFFFFF78
:1052C40089009A00AC00BD00CE00890C9A0CAC0C8D
:1052D400BD0CCE0C89199A19AC19BD19CE198926A1
:1052E4009A26AC26BD26CE269A33AC33BD33CE33B4
:1052F40056004400330022001100560C440C330CB9
:10530400220C110C56194419331922191119562655
:1053140044263326222611264433333322331133D1
:105324000404040404040404040404040404040439
:105334000404040401010101040404040404040435
:105344000404040404040404040404040101010125
:00000001FF
