:100000000C943E040C945B040C945B040C945B0411
:100010000C945B040C945B040C945B040C945B04E4
:100020000C945B040C945B040C94CB1D0C940D1D80
:100030000C944D180C945B040C945B040C945B04BE
:100040000C945B040C945B040C945B040C945B04B4
:100050000C945B040C9400180C945B040C945B04EB
:100060000C945B040C945B040C945B040C945B0494
:100070000C945B040C945B040C945B040C945B0484
:100080000C945B040C945B040C945B040C945B0474
:100090000C945B040C945B040C945B040C945B0464
:1000A0000C945B040C945B040C945B04B707B707D7
:1000B000E607E60750086C08760976097708EB082A
:1000C000FC08FC089D12A212AC12A012A512AA12E2
:1000D000A812D613D913DC13DF13E213E513E813C8
:1000E0002B1B521BF51C521BF51C9E1BC11BF51C28
:1000F000B61CC51C0000000000000000000000004D
:1001000000000000000000000000000000000000EF
:1001100000000000000000007E0F00D4FFFFFFC7BA
:100120000000007800000000000000002A2B2800DA
:100130000000000000000000000000000000002996
:10014000000000002C1E3420212224342627252ED6
:10015000362D3738271E1F2021222324252633330E
:10016000362E37381F0405060708090A0B0C0D0E3A
:100170000F101112131415161718191A1B1C1D2F06
:100180003130232D350405060708090A0B0C0D0E26
:100190000F101112131415161718191A1B1C1D2FE6
:1001A0003130354C0102E30101150103E301043153
:1001B00030307C01011A01043130307C010117011B
:1001C000043130307C0101280029002B002E000171
:1001D00057350000001E00140004001D00E300E07D
:1001E000001F001A0016001B00010001512000082A
:1001F000000700060001002C00210015000900196D
:1002000000E2002900220017000A00050000004A51
:1002100000010000570000260200004B00025802B7
:10022000570000270200004E0023001C000B0011A5
:100230000000004D00240018000D001000E6004CE6
:100240000025000C000E00360036022800260012A1
:10025000000F0037003702E500270013000357386E
:100260000038022A000453310034003402035400E1
:10027000000100010001000100010000001E020158
:10028000004A000100010001001F024F0101001B94
:10029000010100010020024D004C00060101000197
:1002A0000021020100010001000100010022020101
:1002B00000010050010000010001000100000001E8
:1002C0000000000100010001000000010000000129
:1002D0000023020601500001000000010024021D5D
:1002E000015100010001000100250201005200013E
:1002F0000001002802010001004F0001000100017F
:1003000000010019010100090101000100010001C3
:1003100000010001000100000001000100010001D6
:1003200000010000003A000100010001000100018D
:10033000003B00010001000100010001003C000140
:100340000001000100010001003D00010001000169
:1003500000010001003E0001000100010000000159
:100360000001000100000001000000010001005434
:100370000000005500000001003F00240021001E85
:1003800000000001004000250022001F002700019E
:1003900000410026002300200063000100420056B7
:1003A00000570001000100010043000100010001AD
:1003B00000010001000100440045000100010000AF
:1003C00000290301000100010001000000010001FB
:1003D0000001000100010001000100010001003DD9
:1003E0000450094C02010001000100060A4F092CCB
:1003F000040100010001000100010001000100B63C
:100400005D01000100000001000100010000000189
:1004100000000001000100010000000100000001D7
:10042000000100010001005008000001000100016E
:1004300000500A510801000100010001004F0A525A
:100440000801002B04010001000F084F0801002BD8
:10045000060100460001000100010001004C0501F9
:100460000001000100010000000100010001000185
:100470000001000000010001000100010001000175
:10048000000100F100EF0001000100CA5CF300ED83
:1004900000EE0001000100CB5C0100F200F0000161
:1004A00000010001000100F900FA0001000000C491
:1004B0005CAC00AA000000AE0000000100AB00A987
:1004C000000000AE000000C35C010001000100015B
:1004D000000000B55D010001000100010001000104
:1004E0000001000100010001000100C65C010001E3
:1004F00000010001000100C75C01000100010001D2
:1005000000010001000100010001000100010000E4
:1005100000004434540074648400554565008575BA
:10052000950036264600665676009686A600372742
:10053000470077678700382848008878980039296D
:100540004900695979009989A9003A2A4A006A5AEA
:100550007A003B2B4B006B5B7B004C3C5C007C6C63
:100560008C005D4D6D008D7D9D003E2E4E006E5EBB
:100570007E014434540174648401554565018575D8
:10058000950136264601665676019686A6013727DE
:100590004701776787013828480188789801392909
:1005A0004901695979019989A9013A2A4A016A5A86
:1005B0007A013B2B4B016B5B7B014C3C5C017C6CFF
:1005C0008C015D4D6D018D7D9D013E2E4E016E5E57
:1005D0007E05010980A101850319012AB7001501D3
:1005E00026B700950175108100C0050C0901A10115
:1005F000850419012AA002150126A0029501751093
:100600008100C005010906A1018506050719E02939
:10061000E7150025019508750181020507190029D4
:10062000EF1500250195F0750181020508190129D2
:1006300005950575019102950175039101C00501AC
:100640000902A1010901A1000509190129081500E4
:1006500025019508750181020501093009311581CF
:10066000257F95027508810609381581257F95013A
:1006700075088106050C0A38021581257F950175DC
:10068000088106C0C005010906A101050719E02976
:10069000E71500250195087501810295017508810E
:1006A000010507190029FF150026FF0095067508AA
:1006B000810005081901290595057501910295012B
:1006C00075039101C009025400030100A0FA090456
:1006D0000000010301010009211101000122400075
:1006E000070581030800010904010001030102005C
:1006F00009211101000122470007058203080001BA
:100700000904020001030000000921110100012277
:100710006D000705830320000112010002000000A4
:10072000089732764901000102000120034500725A
:100730000067006F0044006F007800200045005AF9
:1007400000200047006C006F007700000028035A6B
:100750000053004100200054006500630068006EF3
:10076000006F006C006F006700790020004C006192
:10077000006200730000000403090400010101018C
:10078000010101010102020202020202020203034C
:10079000030303030303040404040404040505051C
:1007A00005050606060606070707070708080808DE
:1007B000090909090A0A0A0B0B0B0C0C0C0D0D0D8B
:1007C0000E0E0E0F0F0F1010111111121213131421
:1007D00014151516161717181819191A1A1B1B1C99
:1007E0001D1D1E1E1F2020212222232424252626F3
:1007F000272829292A2B2C2D2D2E2F303132323328
:100800003435363738393A3B3C3D3E3F4041424330
:100810004445464748494A4C4D4E4F505153545514
:100820005658595A5B5D5E5F616264656668696BC4
:100830006C6D6F7072737577787A7B7D7E80828342
:100840008587888A8C8E8F91939596989A9C9EA086
:10085000A2A3A5A7A9ABADAFB1B3B5B7BABCBEC093
:10086000C2C4C6C9CBCDCFD1D4D6D8DBDDDFE2E45C
:10087000E7E9EBEEF0F3F5F8FAFDFF0011241FBEF7
:10088000CFEFDAE0DEBFCDBF12E0A0E0B1E0ECEBED
:10089000F3E502C005900D92AA37B107D9F725E01C
:1008A000AAE7B2E001C01D92A132B207E1F70E94AF
:1008B000A21E0C94DC290C940000AAE0B0E0E3E650
:1008C000F4E00C94FE27FC01808191812381348126
:1008D000232B31F09F3F31F491E08F3F19F403C097
:1008E00091E001C090E090FD60C57F0185E0DE01F0
:1008F000169601900D928A95E1F7D70112962C91E8
:100900008E819F81222349F00E94CE24182F682FC8
:100910008E819F810E943E2503C00E940A25182FC8
:100920006E817F81812F0E941E0A8C01F7018281D6
:10093000882369F18091700490917104009709F403
:1009400024C58017910709F420C5FEE08F9FC001E0
:100950001124FC01E05EFE4F208124602083855E2F
:100960009E4FDC010D931C930E94F11810926F04AE
:10097000033BBDE51B0779F0043BEDE51E0709F4D9
:100980004CC0033CFCE51F0709F08BC06AC0033B69
:10099000FDE51F07E9F5D70112968C91882309F42C
:1009A00053C19091BB0481E0890F8770987F853097
:1009B00020F4892B8093BB0402C09093BB048091E8
:1009C000BB048770BFEF8B9FC0011124959587955D
:1009D00095958795992790938900809388009093A7
:1009E0008B0080938A0090938D0080938C004091BF
:1009F000BB045091BC046091BD047091BE048FE0B3
:100A000090E00E9482288091CD040E9487121CC130
:100A1000043B2DE5120709F03FC0F70182818823CE
:100A200009F412C18091BB0483FB222720F991E0D5
:100A3000922790FB83F98093BB04992329F040E02F
:100A400060E080E00E945B224091BB045091BC04B6
:100A50006091BD047091BE048FE090E00E948228F6
:100A6000F3C0D70112968C91882309F46EC490913B
:100A7000B8048091B2049F3F59F41092B804816089
:100A80008093B20440E060E080E00E945B225DC49D
:100A90009FEF9093B80475C1033C3CE5130709F43C
:100AA00054C4F7018281053BFDE51F0709F4C8C066
:100AB000063B2DE5120709F0C7C0882309F414C1CD
:100AC00024EAC22E21E0D22E3AE0432EF6012491F0
:100AD000222309F409C1213009F04EC031968491D6
:100AE000813069F4F2E0CF0ED11CF6018491893394
:100AF00019F460E570E09CC060E070E099C082305D
:100B000041F4F2E0CF0ED11CF60184910E943A2606
:100B100093C0833041F4F2E0CF0ED11CF6018491F2
:100B20000E94052689C0843009F085C0F2E0CF0E0E
:100B3000D11CF601249180E090E030E0205331098F
:100B40002A30310570F4489EA001499E500D1124B1
:100B5000C901840F951FFFEFCF1ADF0AF601249118
:100B6000ECCF009709F468C0AFE9BFE01197F1F747
:100B700000C000000197F5CFE22FF0E0EC5DFE4FE2
:100B80005490822F86958695869590E0FC01EC5EC8
:100B9000FE4F64902770712C022E02C075946794EA
:100BA0000A94E2F7B1E06B227724FC01EC5FFE4F80
:100BB0008490912C022E02C0959487940A94E2F7B7
:100BC000E1E08E229924FC01EC50FF4FA490B12C5F
:100BD00002C0B594A7942A95E2F7F1E0AF22BB24B6
:100BE0006114710419F081EE0E943A268114910477
:100BF00009F4C2C386EE0E943A2629E3521609F48C
:100C0000B5C360E070E0852D0E94DF268114910459
:100C100019F086EE0E9405266114710419F081EE28
:100C20000E940526A114B10439F060E070E08CE266
:100C30000E94DF2601C06F013FEFC31AD30A46CFDF
:100C4000882309F482C3CBC0C80197558F3F910513
:100C500011F008F049C05801BB248EE0089FF00154
:100C60001124DF01A55EBE4F6D01D70112969C9144
:100C70001297E05EFE4F808190FB80F98083129690
:100C80009C91992309F421C10E9441189093EE048C
:100C90008093ED04F60182818F5F828390916F04CF
:100CA00080918304892B83838091F502848306805D
:100CB000F781E02D309739F0D6011C966D917C912B
:100CC0001D97C60109958EE08A9DF0018B9DF00D60
:100CD0001124E05EFE4F808181FFF4C090E080E04F
:100CE0009093700480937104F701828181117BC01D
:100CF0008091830482720A3CFCE51F0709F45EC000
:100D000028F5063C3CE5130709F449C0A8F4043C67
:100D1000ACE51A07D1F1F0F5033CECE51E0709F04C
:100D2000DAC09091B30481E089278093B3041092D4
:100D30000C018091B20425C0083CFCE51F07A1F11D
:100D4000C0F54CEF56E162EF76E146C00E3C3CE563
:100D5000130709F444C050F40C3CACE51A0799F1B0
:100D6000B8F54BEC56E16EEB76E136C0073DECE5AD
:100D70001E0708F4EAC20F35FDE51F0709F4E5C2B6
:100D8000AAC081608093B204E0C246E057E160E10E
:100D900077E122C040E157E166E077E11DC042EF14
:100DA00056E16CEF76E118C048ED56E165EE76E16C
:100DB00013C045EE56E168ED76E10EC04EEB56E10C
:100DC0006BEC76E109C043E454E161E574E104C0F1
:100DD00041E554E163E474E10E941C19B6C281E06C
:100DE0000E94F319B2C20C352DE5120709F464C054
:100DF00060F401158CE51807A9F00F3D9CE5190773
:100E000009F069C00E94D30B4CC00E35ADE51A073E
:100E100009F44AC008F452C0093AEDE51E0709F486
:100E200040C059C0109283040E94CF25FFEF24E3F5
:100E30003CE0F15020403040E1F700C00000F89461
:100E400081E08093E00080E28093D8001092C90096
:100E50008FE19EE40197F1F700C000001DBA1092E7
:100E600068001CBC10BE1FBA10927A0010926E006F
:100E700010926F0010927100109272001092C900CF
:100E80001092BC0014B817B81AB81DB810BA109256
:100E9000BC0015B818B81BB81EB811BA0C94003FA6
:100EA00054C20E946F1251C280917E0482FB882737
:100EB00080F991E0892703C081E001C080E00E94B1
:100EC000CF0C09C0902F812F0BCF81FF11CFC6010E
:100ED0000E94D71809CFF7018281008111818823F0
:100EE00049F0C8010E94CE24D82E682FC8010E9464
:100EF0003E2504C0C8010E940A25D82EB8018D2DB8
:100F00000E941E0A0E94370A8C01982EF701D28097
:100F1000C580C2949FE0C9228091D4028770B9F045
:100F2000DD20A9F0812F807F803421F080E2800FC6
:100F3000883068F080917E0482FF09C082E00E94C0
:100F4000B20C8091D4028770BB24B3948111B12C70
:100F5000A12EA2948FE0A8228A2D90E08C309105DA
:100F600008F0C4C1FC01EA5AFF4F0C94A828812F55
:100F7000807F1F70882311F01295107FDD20B9F05B
:100F8000112309F4A1C180E2800F883010F0911084
:100F900006C080918304182B1093830405C08091B0
:100FA0006F04182B10936F040E945D0C8DC1802F6D
:100FB0000E940526112309F499C1005E812F083093
:100FC00060F1992051F10E944F0C29C0812F807F40
:100FD0001F70803211F01295107F992021F0F1E0FE
:100FE0009F16D9F147C080917E0482FD1BC0DD2091
:100FF00069F0112339F080918304182B1093830436
:101000000E945D0C80E00E943A2670C180E00E9440
:101010000526112309F46AC1812F0E94560C0E94F3
:101020005D0C64C1DD2081F08091F502CC2051F08F
:1010300021E0C21207C0182B181709F457C11093EA
:10104000F50254C1812B10C0CC2021F031E0C31631
:1010500009F44CC10E94490C1FC0DD2041F081E021
:101060008C1508F443C1812F0E94FB253FC1C1109C
:101070003DC112C0DD2019F0CC20A9F325C1CC2040
:1010800059F0093309F02FC19FEFA7EEB3E091505B
:10109000A040B040E1F725C1812F0E94F42526C170
:1010A000812F86958695837019F0813059F01EC185
:1010B000DD2019F0C801937002C080E090E00E942A
:1010C000B4181AC1DD2019F0C801937002C080E085
:1010D00090E00E949E1810C1802FDD2019F00E9420
:1010E000302402C00E9478230E948B2405C1812FE6
:1010F0008370A9F5D110FEC0402F429546954770E8
:10110000440F440F802F8F7090E09C01042E01C08B
:10111000220F0A94EAF704FF08C08FE090E001C0B4
:10112000880F4A95EAF7809501C080E016951695DC
:101130001370123069F088F49091F602113019F0B2
:10114000822B892302C0922B892B0E949325D2C027
:10115000822B9091F6028927F8CF822BF6CFDD20E3
:1011600019F0812F817001C08695882309F4C2C0CF
:10117000402F429546954770440F440F802F8F7043
:1011800090E09C01042E01C0220F0A94EAF704FFAC
:1011900008C08FE090E001C0880F4A95EAF780957B
:1011A00001C080E0169516951370123059F078F44E
:1011B0009091CD04113019F0822B892309C0922B14
:1011C000892B06C0822B9091CD04892701C0822BE8
:1011D0000E9473258FC01F70DD2039F0812F0E947F
:1011E0008725802F0E94FB2585C0802F0E94F42533
:1011F000812F0E947A257EC0802FE2EF9E1669F132
:10120000E91538F0F0EF9F1659F021EF921601F131
:1012100057C033EF931641F194EF9916A9F050C0DF
:10122000DD2069F0C11062C01F7181E090E001C053
:10123000880F1A95EAF79091CD0489271FC0A1E085
:10124000AC1508F453C0F0CF80917E0482FD19C024
:10125000DD2029F0812F8F7126C0DD20D9F3812F69
:101260008F710E947A2542C0DD2039F01F7181E024
:1012700001C0880F1A95EAF701C080E00E9473252B
:1012800035C0DD2099F01F71812F0E948725809144
:101290007E0482FF07C0B8E01B9FC0011124836059
:1012A0008093D402812F0E94872520C081E00E9474
:1012B000B20CE1E0EC15D0F482E00E94B20C16C052
:1012C000DD2021F0CC2031F2802F9DCECC2039F2D0
:1012D000893349F4FFEF27EE33E0F15020403040EE
:1012E000E1F700C00000802F0E94052688EF8A0DDC
:1012F000843010F40E94CA18BB20B1F08091D4024F
:1013000080FD12C0D70112961C9285958595859512
:101310000E948725C7010E945D048091D4028595B3
:10132000859585950E947A2585E0F701DE01119665
:1013300001900D928A95E1F709811A81C8010E94F6
:101340000A25B8010E941E0A30C08091D40287701D
:1013500061F1D70112968C91882339F180917E0436
:1013600082FF23C082E00E94B20C1FC060E570E0E3
:1013700089E30E94DF264DCC89E3581242CC60E518
:1013800070E089E30E94DF2647CC033B9DE5190707
:1013900009F407CB043BADE51A0709F43ECB033C47
:1013A000BCE51B0709F07DCB62CB2A96E0E10C94EB
:1013B0001A2880E0089590917D0492FF0DC0282F97
:1013C0002871283019F4877F846006C0282F247183
:1013D000243011F48B7F886093FF0DC0282F287173
:1013E000283119F4877E846106C0282F24712431A6
:1013F00011F48B7E886120917E0420FF0DC0382F70
:101400003871383019F4877F816006C0382F317108
:10141000313011F48E7F886021FF0DC0282F287194
:10142000283119F4877E816106C0282F217121316E
:1014300011F48E7E886194FD877E08957E30A0F43D
:10144000663090F494E5899FF001112486E0789F3E
:10145000E00DF11D1124E60FF11DEE0FFF1FE75304
:10146000FE4F85919491089580E090E00895CF9388
:10147000DF938238910569F1B0F48133910509F465
:1014800077C048F48932910509F469C08A32910520
:1014900009F473C092C08533910509F45BC08933A8
:1014A0009105B9F08AC0833E910591F138F4803EF0
:1014B0009105D1F0823E910531F17FC0863E9105C4
:1014C000D9F1873E9105E9F1843E910509F075C097
:1014D00028C020917D0420FD5BC021FD59C02091D2
:1014E0007E0423FD61C069C080917D0480FD4AC0F7
:1014F00080917E0480FF4CC080917D0484FD4EC1AC
:1015000083EE90E04DC180917D0482FF3EC0F4CF18
:1015100080917D0482FD39C080917E0480FD38C0B9
:10152000EBCF80917E0481FF39C080917D0484FDE2
:1015300035C187EE90E034C180917D0483FF2BC0DC
:10154000F4CF80917D0483FD26C080917E0481FDCF
:1015500025C0EBCF80917D0485FD26C022C08091FF
:101560007D0485FD1EC080917E0483FF1DC00AC0DE
:1015700080917D0486FD1BC01DC080917D0486FD89
:1015800019C015C089E390E00BC182EE90E008C15C
:1015900080EE90E005C186EE90E002C184EE90E01E
:1015A000FFC085E390E0FCC089E290E0F9C08AE2E8
:1015B00090E0F6C081E390E0F3C0811531E5930738
:1015C00008F061C0811520E59207B0F09C012370FE
:1015D000332741E050E002C0440F551F2A95E2F73F
:1015E000282F2695269580E2289F90011124CA0174
:1015F000822B932B9D68D4C0883E910568F5803E70
:10160000910508F0CDC0883A9105B8F4853A910566
:1016100048F0855AE82FF0E0EA5AFE4F808190E0CA
:101620009064BEC08130910509F4B5C008F4B6C01D
:101630008430910508F4B2C0B3C08F3B910508F027
:10164000ADC0885AE82FF0E0EE0FFF1FE75AFE4FBB
:10165000808191819464A4C0811530E2930758F48D
:10166000811521E0920708F09BC08D3E910508F49A
:1016700095C0906595C0811530E4930708F48EC03D
:101680009F70906A8DC0811525E5920708F042C0D1
:10169000811534E5930728F0982F8827846F906A86
:1016A0007FC0811523E59207B0F09C01237033279A
:1016B00041E050E002C0440F551F2A95E2F7282F61
:1016C0002695269580E2289F90011124CA01822B3D
:1016D000932B9A6865C0811532E5930728F4982FFB
:1016E0008827816F906A5CC09C012370332741E09A
:1016F00050E002C0440F551F2A95E2F7282F269587
:10170000269580E2289F90011124CA01822B932BF9
:101710009C6846C0EC01C11589E5D807B0F4C11535
:1017200028E5D20728F09C2F8827806F906A38C060
:10173000C11536E5D30790F58C2F0E94DB098F7118
:1017400090E0982F882790622BC0C1158AE5D807B2
:1017500090F48C2F8F700E94DB0994E0D695C7958A
:101760009A95E1F7CF70D0E0DC2FCC27D0699E01AD
:10177000282BC90115C0CE0190568115904270F4F6
:101780008D2F8F710E94DB09282F2F71CE01992791
:101790009062922B05C081E090E002C080E090E072
:1017A000DF91CF91089568EE7EEF80E090E00E9497
:1017B0008E2860E082E090E00E94702860E083E084
:1017C00090E00E9470281092F60260E084E090E0C1
:1017D0000E94702864E082E290E00E94702860E03D
:1017E00085E090E00E94702860E086E090E00E9432
:1017F00070286FEF87E090E00E94702840E050E092
:10180000BA0188E090E00E94822860E08DE090E0DC
:101810000E94702840E050E0BA0188E190E00E9408
:10182000822860E087E190E00E94702840E050E06C
:10183000BA018CE190E00E94822860E070E080E2D2
:1018400090E00E948E2840E050E0BA0188E190E0EC
:101850000E9482281092BB041092BC041092BD0416
:101860001092BE0484E08093BB044091BB0450916D
:10187000BC046091BD047091BE048FE090E00E94B2
:10188000822840E050E0BA0183E190E00E94822883
:1018900008958091F50281111092F50208958095C6
:1018A00090916F04892380936F040895809590919F
:1018B0008304892380938304089590918304809105
:1018C0006F04982B90937C028091F5028823D9F0C5
:1018D000892B80937C0280910B01882331F08091C9
:1018E0007D0487FF02C08EE101C086E0EEE7F2E0F2
:1018F00090E0815028F021912223D9F39F5FF9CF06
:1019000091110E94490C40E250E065ED72E08CE7D5
:1019100092E00E94CF29892B21F180E2ECE7F2E0EE
:10192000A5EDB2E001900D928A95E1F7E091740483
:10193000F09175043097A9F080910B01882359F03C
:1019400080917D0487FF07C080917C0280937D0297
:1019500086E080937C020280F381E02D8CE792E0A8
:10196000099508952091D402809582238093D40212
:10197000982F977099F430E0482F082E000C550BE3
:101980002417350759F090917E0492FF07C0859582
:10199000859585950E947A251092D4020895CF935B
:1019A000C0917E04C2FB992790F9981791F080FBB3
:1019B000C2F9C0937E0460917D0484E090E00E94AF
:1019C00070286C2F82E290E00E94702882E00E94D2
:1019D000B20CCF9108958091D3029091A202891701
:1019E00019F08F5F8770FBCF08950F931F93CF93EC
:1019F000DF938091A10282958F7009F05AC0809187
:101A00009E02882309F455C08091D3021091A2024E
:101A100060919C0270919D02C0919F02D091A002A2
:101A200091E06F3F09F090E0292F06E0811709F45B
:101A300040C0209721F07F3F21F030E003C031E02B
:101A400001C0322F90E030FD31C0089FF001099FA6
:101A5000F00D1124DF01AD55BD4F11963C9111974A
:101A6000371324C03C91361321C012963C91129733
:101A700031111CC013964D915C9114974C1B5D0B5A
:101A8000403A510598F48091A1028F708061809353
:101A9000A102E855FD4F80818F70806180838CE9C1
:101AA00092E00E945D040E94EB0C03C001968770D7
:101AB000BDCFDF91CF911F910F910895A1E1B0E0CB
:101AC000E4E6FDE00C9403288C0185E0F801DE01DA
:101AD0001D9601900D928A95E1F7F801E2809091B0
:101AE0009C0260919D0240919F025091A00241157D
:101AF000510531F06F3F31F481E09F3F19F403C08D
:101B000081E001C080E0F82FF1709F2E80FD1BC1A5
:101B1000F80130812181C380D4808CE9A82E82E035
:101B2000B82EF0909E02F601E41BF50BFF2009F49D
:101B3000C7C08091A102E03AF10508F092C0482F99
:101B4000407F09F051C0621311C093130FC0FE2CE7
:101B5000E1100CC08F7080618093A102C5010E94CA
:101B60005D048091A102F80185832AC1C114D104CA
:101B700031F02F3F31F481E03F3F19F403C081E0A1
:101B800001C080E080FD03C081E08E2502C080E0BE
:101B900090E0F82FF170FF2E80FF1CC08091D302DF
:101BA0004091A20256E0841709F4E8C090E0589FE3
:101BB000F001599FF00D1124ED55FD4F6181261361
:101BC00006C06081631303C06281E61203C0019600
:101BD0008770E9CFFE2CEE2009F4F2C08091A102BB
:101BE00081608093A10249C0621306C0931304C0B0
:101BF000E11002C0F80186C0C8010E949825882320
:101C000051F1EE2041F12091A102822F82958F7037
:101C100090E0029774F080919C0290919D029887C9
:101C20008F831986DB86CA862C87CE0107960E9491
:101C30005D0486E0F801ACE9B2E001900D928A956E
:101C4000E1F70E94F50C0AC06217C9F0C8010E94B2
:101C5000982581111EC0C8010E945D04FF24F394E1
:101C6000AFC0482F407F81F78CE992E00E945D046D
:101C700086E0F50111928A95E9F7F12CA1C0931342
:101C8000E5CFE110E3CFF8018583C8010E945D0430
:101C900054C0EE2001F32091A102822F82958F7013
:101CA00090E0029734F280919C0290919D029A8379
:101CB00089831B82DD82CC822E83CE010196B7CF31
:101CC000E03AF105D0F5FE2CEE2029F2621327C090
:101CD000931325C02091A10220FD18C0822F829568
:101CE0008F70482F50E04115510581F0F801258390
:101CF0004F30510541F08F5F982F9295907F822F42
:101D00008F70892B8583C8010E945D0486E0F801ED
:101D1000ACE9B2E001900D928A95E1F751C0C8019B
:101D20000E949825811185CF8091A10281608093C6
:101D3000A102C8010E945D0443C086E0F501119232
:101D40008A95E9F73DC0EE2009F485CFC8010E94CD
:101D50009825F82E882309F47ECF86E0F801ACE9B7
:101D6000B2E001900D928A95E1F780919C029091EA
:101D70009D020E94FD240E94F50C22C03D872E8703
:101D80008D859E850E94FD24292F22952F7022305B
:101D900028F49F7039F0811105C00BC0243028F45D
:101DA0009F7049F4805E883020F0C8010E945D0475
:101DB0009F2CF92C05C0F8019581907F99F7F9CFF8
:101DC0008F2D6196EBE00C941F28A0E0B0E0EBEEC5
:101DD000FEE00C9406288091190190911A01892B3C
:101DE000A1F08091F7028F5F8093F70281110DC0FF
:101DF0000E94B11290E090931A0180931901892BEF
:101E000021F40E9428130E9423190FEB14E078019B
:101E1000D0E0C0E087E0C82ECC0E8C2F0E94981333
:101E20008C2D0E9498138C2F0E94FB138F73F70147
:101E30009081891721F08083DD24D39401C0D12CB7
:101E40008C2D0E94FB138F73F7019781891719F06E
:101E5000878381E001C080E0D82ADD290E94EC134D
:101E6000CF5FFFEFEF1AFF0AC730A1F61092FC0216
:101E7000C091FB02CC2309F47BC00E944118209141
:101E8000F9023091FA02AC01421B530B9A01909374
:101E9000FA028093F9024F3F510509F018F4452BDF
:101EA00019F102C02FEF30E01092FB021092F802FD
:101EB000E091B904F091BA04AF01425F5F4F90E046
:101EC00030E08081882341F0281718F010829C2F81
:101ED00003C0821B80833C2F3196E417F50789F7F6
:101EE0003093FB029093F802DD23A1F1E091B90455
:101EF000F091BA048091FC029091FB02A0EDB4E055
:101F0000AF01425F5F4F6EE1E80128813C913217DB
:101F100079F0308131110CC060832C939881922725
:101F2000282F30E0292B81E0232B09F480E091E079
:101F3000319611960F5F1F4FE417F50729F780932D
:101F4000FC029093FB028091FC02CDB7DEB7E8E083
:101F50000C94222881E09091F8029923A1F3811139
:101F6000C5CF0E9441189093FA028093F902BECF28
:101F7000D111F7CF80E0EFCF982F92959F7019F095
:101F8000892F24E001C020E0982F9695969511F0B6
:101F90002E5F892F982F969509F02F5F822F089535
:101FA0009C013A9521153F4130F5BC0166277270BE
:101FB000AC01442754709C012227387094FF0FC055
:101FC00090FF02C080E101C080E0672B09F08062D1
:101FD000452B09F08064232B79F080680895892FC0
:101FE0008170672B09F08260452B09F08460232BF8
:101FF00019F08860089580E00895FC0182818130A5
:1020000039F4958192FD12C090FF10C082E00895CE
:10201000823039F4858182FD06C080FD06C083E0F0
:10202000089586E0089585E0089584E00895CF93AB
:10203000DF93EC010E940526CE01805E910908978E
:1020400010F0209731F4CE010E94D00F0E94F425A9
:1020500005C0CE010E94D00F0E94E325DF91CF91F1
:1020600008958FE39CE90197F1F700C0000080918B
:102070000503823049F018F4813049F00CC08330F8
:1020800031F0853021F007C083E392E002C083E3A2
:1020900090E00E9417101092050308958FE39CE9C9
:1020A0000197F1F700C0000080910303823049F0EE
:1020B00018F4813049F00CC0833031F0853021F0C4
:1020C00007C080E390E002C080E392E00E94171016
:1020D0001092030308958FE39CE90197F1F700C084
:1020E000000080910103823049F018F4813049F0FA
:1020F0000CC0833031F0853021F007C08DE292E0D2
:1021000002C08DE290E00E94171010920103089522
:102110008FE39CE90197F1F700C000008091FF0276
:10212000823049F018F4813049F00CC0833031F02E
:10213000853021F007C08FE290E002C08FE292E08C
:102140000E9417101092FF020895CF93DF93EC01C5
:10215000805E9109089710F0209731F4CE010E941B
:10216000D00F0E94FB2505C0CE010E94D00F0E9417
:10217000EA258C2F0E943A26DF91CF9108950F9384
:102180001F93CF93DF938C01C99719F0C0E0D0E083
:1021900002C0C0E5D0E0C8010E94A510209741F020
:1021A0008FE99FE00197F1F700C000002197F6CF7B
:1021B000C8010E941710DF91CF911F910F910895D0
:1021C000CF93DF93EC018A81833061F483E390E065
:1021D0000E94BF1083E390E00E94BF1083E390E071
:1021E0000E94BF108A81843020F083E390E00E9437
:1021F000BF10DF91CF910895CF93DF93EC018A81D7
:10220000833061F480E392E00E94BF1080E392E0AB
:102210000E94BF1080E392E00E94BF108A81843048
:1022200020F080E392E00E94BF10DF91CF910895EB
:10223000CF93DF93EC018A81833061F48DE290E0EB
:102240000E94BF108DE290E00E94BF108DE290E0EE
:102250000E94BF108A81843020F08DE290E00E94BD
:10226000BF10DF91CF910895CF93DF93EC018A8166
:10227000833061F48FE292E00E94BF108FE292E01F
:102280000E94BF108FE292E00E94BF108A818430CA
:1022900020F08FE292E00E94BF10DF91CF9108956D
:1022A0000E94FD0F80930503823049F018F48130BD
:1022B00091F00895833031F0853049F0089583E33B
:1022C00092E00BC083E390E00E94A51004C083E37A
:1022D00090E00E94BF1083E390E00E94A510089553
:1022E0000E94FD0F80930303823049F018F481307F
:1022F00091F00895833031F0853049F0089580E3FE
:1023000090E00BC080E392E00E94A51004C080E33F
:1023100092E00E94BF1080E392E00E94A510089511
:102320000E94FD0F80930103823049F018F4813040
:1023300091F00895833031F0853049F008958DE2B1
:1023400092E00BC08DE290E00E94A51004C08DE2E7
:1023500090E00E94BF108DE290E00E94A5100895C9
:102360000E94FD0F8093FF02823049F018F4813003
:1023700091F00895833031F0853049F008958FE26F
:1023800090E00BC08FE292E00E94A51004C08FE2A3
:1023900092E00E94BF108FE292E00E94A510089583
:1023A000A7E1B0E0E6EDF1E10C940B284B8B5C8BE0
:1023B0006D8B7E8B8F8B611110926F0486E09E0176
:1023C000235F3F4FD901E82F1D92EA95E9F795E089
:1023D000FE017396D90101900D929A95E1F79C89BF
:1023E0004E895F897B897D879E876F87598B488B54
:1023F000F901DE01179601900D928A95E1F7CE0161
:1024000007960E945E0D81113EC086E0FE01379660
:10241000DE01119601900D928A95E1F7FF81E88522
:102420006A857B856115710531F0EF3F31F481E0FC
:10243000FF3F19F403C081E001C080E080FD23C0AC
:102440002091A20230E0C90101968770992740913E
:10245000D30250E08417950779F1F983EA837D83ED
:102460006C8396E0929FD001939FB00D1124AD55DF
:10247000BD4FFE01319601900D929A95E1F7809340
:10248000A2020E94EB0C16E08091D3029091A2026E
:10249000891709F1189FC00111248D559D4F0E9485
:1024A0005E0D8823C1F08091D30290E00196877081
:1024B00099278093D302E8CF109283040E94CF25FE
:1024C0001092A2021092D302ECE9F2E086E0DF0162
:1024D0001D928A95E9F76796E3E00C9427281092FD
:1024E00083040E94CF252FEF84E39CE0215080409D
:1024F0009040E1F700C000009AE088E10FB6F89440
:10250000A895809360000FBE90936000FFCFCF939B
:10251000C82F0E94BC0F56985E9825982D98269833
:102520002E9827982F9890E0FC013197E730F1051D
:10253000A8F4EE59FF4F0C94A828259A2D9A0EC0A6
:10254000259A2D9A269A2E9A09C0259A2D9A04C06A
:10255000259A2D9A269A2E9A279A2F9A8C2FCF91C8
:10256000089580E290E090931A0180931901809180
:10257000FD0281110EC00E94F72681E08093FD02CA
:102580002FEF83ED90E3215080409040E1F700C0B1
:10259000000060E570E080E40E94FD2690931A013F
:1025A00080931901892B09F04EC060E570E080E04E
:1025B0000E94702790931A0180931901892B09F0CA
:1025C00042C060E570E080E00E94702790931A019D
:1025D00080931901892BB9F560E570E08FE30E94C3
:1025E000702790931A0180931901892B61F50E943D
:1025F000E42760E570E080E40E94FD2690931A01D4
:1026000080931901892BF9F460E570E08CE00E9459
:10261000702790931A0180931901892BA1F460E52A
:1026200070E080E00E94702790931A018093190156
:10263000892B49F460E570E08FE30E947027909346
:102640001A01809319010E94E427809119010895CD
:10265000CF93DF9356985E9825982D9826982E98BC
:1026600027982F98C8E8D0E08FEF90E0998388836F
:10267000AAE8B0E011969C938E93ECE8F0E0918389
:102680008083259A2D9A2FEF80E792E02150804099
:102690009040E1F700C00000269A2E9A2FEF80E7C5
:1026A00092E0215080409040E1F700C00000279A5E
:1026B0002F9A2FEF80E792E0215080409040E1F781
:1026C00000C0000025982D982FEF80E792E0215060
:1026D00080409040E1F700C0000026982E982FEF30
:1026E00080E792E0215080409040E1F700C0000078
:1026F00027982F988091BB0487702FEF829FC0018D
:102700001124959587959595879599279983888321
:1027100011969C938E939183808356985E9825980A
:102720002D9826982E9827982F98DF91CF9108956D
:10273000CF93E82F873080F58091190190911A018D
:10274000892B09F047C0CE2F60E570E080E40E943D
:10275000FD2690931A0180931901892BD1F460E52D
:1027600070E082E10E94702790931A018093190112
:10277000892B79F481E090E001C0880FCA95EAF7CF
:1027800060E570E080950E94702790931A01809315
:1027900019010E94E4271EC090E0FC013797E73042
:1027A000F105C0F4E759FF4F0C94A828209A289807
:1027B00011C0219A29980EC0229A2A980BC0239AF8
:1027C0002B9808C0529A5A9805C0539A5B9802C039
:1027D0003E9A4698CF910895209828982198299854
:1027E00022982A9823982B9852985A9853985B9835
:1027F0003E9846980895CF93873040F5809119010F
:1028000090911A01892B59F560E570E081E40E94EE
:10281000FD2690931A0180931901892B11F0C0E0D5
:1028200011C080E590E00E949F2797FF05C090931C
:102830001A0180931901F3CFC82FC09510921A0185
:10284000109219010E94E4278C2F0AC09FB18FB10A
:10285000807F869586959370892B809501C080E056
:10286000CF9108958098889A8198899A84988C9AB3
:1028700085988D9A86988E9A87988F9A089508954C
:10288000809185040895E3EBF4E0248130E1231B7B
:1028900008F420E024838091B20481608093B20424
:1028A0000895E3EBF4E0248130E1230F08F42FEFE7
:1028B00024838091B20481608093B2040895809350
:1028C0007F0470938104609380048091A804843015
:1028D00001F583E08093E9008FEF9091E80081504B
:1028E00095FD06C095ED9A95F1F700008111F5CFA1
:1028F0008091E80085FF0DC040E050E063E070E0AB
:102900008FE794E00E941C1A8091E8008E778093F4
:10291000E8000895BC0184E00E945F140895BC01A2
:1029200083E00E945F14089522E02093E9002FEFD6
:102930003091E800215035FD06C035ED3A95F1F7AC
:1029400000002111F5CF2091E80025FF0BC040E0E9
:1029500050E065E070E00E941C1A8091E8008E77DC
:102960008093E8000895CF93DF9320910B012223F9
:1029700039F020917D0427FF03C060E223E002C00C
:1029800068E021E02093E9002FEF3091E80021502A
:1029900035FD06C035ED3A95F1F700002111F5CF70
:1029A0002091E80025FF1DC0EC0180910B018111F1
:1029B00005C040E050E068E070E003C070E040E037
:1029C00050E0CE010E941C1A8091E8008E7780931F
:1029D000E80080E2FE01A6E8B4E001900D928A953D
:1029E000E1F7DF91CF910895A4E0B0E0EAEFF4E1E0
:1029F0000C9409288033910588F5122F042FF62EA8
:102A0000BC01660F771F660F771F6F5E7A4F44E039
:102A100050E0CE0101960E943328898183704A815B
:102A2000282F30E050E9859FC0011124875D9C4F1D
:102A3000FC01E40FF11DB497F0824B81FC01E40F1F
:102A4000F11DB49700834C81840F911DFC01B49754
:102A50001083F901E95DFC4F81E080832496E5E075
:102A60000C942528FF920F931F93CF93DF93182F79
:102A7000062FF42EC0E0D0E02F2D402F612FCE0185
:102A80000E94F4142196C033D105B1F7CDB7DEB75B
:102A9000E5E00C9425280F931F93CF93DF93082F25
:102AA000000FEB0114E210931303E4E1F3E0DE0105
:102AB0008D91819383E0E432F807D1F723E030E091
:102AC00041E150E063E173E0802F0E94C327105F73
:102AD0006096143B41F7DF91CF911F910F910895BC
:102AE00080912703882329F069E273E084E70E943C
:102AF0004B151092270380912803882329F069EB56
:102B000073E087E70E944B15109228030895E3E1D4
:102B1000F3E06083418323E030E042E050E0BF0116
:102B2000880F0E94C3270895A0E0B0E0EAE9F5E12C
:102B30000C940728262F30E0A90143595B4F7A01F6
:102B4000FA019081911107C0F7011082CDB7DEB76D
:102B5000E7E00C942328D82EF2E16F9FE0011124C6
:102B600000E010E0F801EC0FFD1FE75BFB4F408138
:102B7000602F8D2D0E9487150F5F1F4F02311105A9
:102B800089F7E2CFCF93DF93C82F4BE06DEF0E9420
:102B9000871540E06AE08C2F0E9487158FE39CE93F
:102BA0000197F1F700C0000040E060E08C2F0E9428
:102BB000871540E061E08C2F0E94871540E066E0B9
:102BC0008C2F0E94871540E06DEF8C2F0E94871597
:102BD000D0E040E06D2F8C2F0E948715DF5FD2314F
:102BE000C1F740E06D2F8C2F0E948715DF5FD43234
:102BF000C1F740E06D2F8C2F0E948715DF5FD43B1B
:102C0000C1F74BE06DEF8C2F0E94871541E06AE021
:102C10008C2F0E94871540E06DEF8C2F0E94871546
:102C2000DF91CF910895A4E0B0E0E9E1F6E10C94E2
:102C300000280E94F72684E70E94C21587E70E94B9
:102C4000C21501E115E072E1772EE8E0CE2ED12C1D
:102C5000EE24E394F12C6624639444E050E0B80140
:102C6000CE0101960E9433282A8130E0C901849761
:102C7000AB80B12C44E2A41AB108EC81F0E0B49727
:102C8000AC0197FF02C0495F5F4F63E055954795E0
:102C90006A95E1F72981237030E0729EB001739E3E
:102CA000700D1124675B7B4F4B01840E911CB601A4
:102CB0000E949428D70102C0AA0FBB1F8A95E2F791
:102CC000CD01D4019C91892B8C93C501B7FC07964B
:102CD00053E0959587955A95E1F7729EA001739EF2
:102CE000500D1124475B5B4F4A01880E911CC501B2
:102CF000B6010E949428A70102C0440F551F8A956F
:102D0000E2F7CA01D4019C91892B8C93CF01F7FD86
:102D1000079643E0959587954A95E1F7729EA00145
:102D2000739E500D1124475B5B4F5A01A80EB11CD6
:102D3000CF01B6010E949428F70102C0EE0FFF1FD9
:102D40008A95E2F7CF01D5019C91892B8C93F901EB
:102D5000E359FB4F60820C5F1F4FB5E0013D1B073D
:102D600009F07BCF60E084E70E94941561E087E77B
:102D70000E9494152496EEE00C941C28E3EBF4E0FA
:102D8000438120E1421B08F440E08181628190E0B0
:102D90000E940C1A0895E3EBF4E0438120E1420F16
:102DA00008F44FEF8181628190E00E940C1A08952F
:102DB000E3EBF4E0628120E1621B08F460E08181D2
:102DC000438190E00E940C1A0895E3EBF4E06281E5
:102DD00020E1620F08F46FEF8181438190E00E944F
:102DE0000C1A0895E3EBF4E0818190E04381628165
:102DF00008970E940C1A0895E3EBF4E0818190E0BB
:102E00004381628108960E940C1A08958091B30450
:102E100086958695815009F482E00E94F319089501
:102E20008091B304869586958F5F833008F081E0AA
:102E30000E94F31908952091E4003091E50095E691
:102E40004091EC00842F817040FF23C08091E80006
:102E500080FD1DC08091A804882399F0853099F0E9
:102E60008091EB0085FD11C04091E4005091E50098
:102E70002417350729F3915011F09A01E1CF84E02E
:102E8000089582E0089583E0089581E0089580E048
:102E900008954091E80042FFDDCF08958091AA0493
:102EA00087FF11C08091E80082FD05C08091A804D1
:102EB0008111F8CF11C08091E8008B770BC0809111
:102EC000A804882349F08091E80080FFF8CF809122
:102ED000E8008E778093E8000895982F973068F582
:102EE0009093E900981739F07091EC002091ED0073
:102EF0005091F00003C0242F762F50E021FD02C036
:102F00009F5FECCF3091EB003E7F3093EB00309130
:102F1000ED003D7F3093ED003091EB003160309358
:102F2000EB007093EC002093ED005093F0002091A3
:102F3000EE0027FDE5CF80E008958F708093E900D3
:102F400081E008952091B0043091B104261737072D
:102F500048F06115710539F42091E8002E7720932F
:102F6000E80001C0B901FC0120E06115710579F1AB
:102F70008091A8048823F1F18530F1F18091E80077
:102F800083FD3CC08091E80082FD2EC08091E80066
:102F900080FFEBCF2091F3008091F20090E0922B24
:102FA0006115710551F08830910538F42191209315
:102FB000F100615071090196F3CF21E0089709F003
:102FC00020E08091E8008E778093E800CECF211139
:102FD000CFCF0AC08091A804882361F0853061F0CA
:102FE0008091E80083FD0AC08091E80082FFF2CF63
:102FF00080E0089582E0089583E0089581E00895D7
:1030000078941F920F920FB60F9211248F939F9373
:10301000AF93BF938091790490917A04A0917B043F
:10302000B0917C040196A11DB11D80937904909309
:103030007A04A0937B04B0937C04BF91AF919F91DD
:103040008F910F900FBE0F901F9018959C014FB756
:10305000F8948091790490917A04A0917B04B091C6
:103060007C044FBF821B930B08952FB7F894609197
:10307000790470917A0480917B0490917C042FBF35
:1030800008952FB7F8948091790490917A04A091D3
:103090007B04B0917C042FBF08951F920F920FB64E
:1030A0000F9211248F939F93AF93BF9380917804D5
:1030B000811113C08091790490917A04A0917B04CE
:1030C000B0917C044196A11DB11D80937904909329
:1030D0007A04A0937B04B0937C04BF91AF919F913D
:1030E0008F910F900FBE0F901F90189520910B019C
:1030F0002223C9F020917D0427FF15C0262F269595
:10310000269526952E31C8F4FC01E20FF11D67705B
:1031100081E090E001C0880F6A95EAF7809592817E
:10312000892382830895FC0106962281621301C0DF
:1031300012823196E817F907C1F7089520917604B5
:10314000309177042817390771F0909377048093B2
:103150007604E0917404F0917504309721F00084B6
:10316000F185E02D09950895209172043091730442
:103170002817390771F09093730480937204E091DB
:103180007404F0917504309721F00680F781E02DEA
:1031900009950895E0917404F0917504309729F031
:1031A0000190F081E02D0995089580E00895CF9376
:1031B000DF93EC01EA85FB85309719F06C857D85FE
:1031C00009958B810E944F0C8C810E94560C0E94A5
:1031D0005D0C86E0FE0111928A95E9F7DF91CF91AF
:1031E0000895CF93DF93EC018D8181FD18C082603B
:1031F0008D8390916F048B81892B80936F049091C4
:1032000083048C81892B809383040E945D0CE88564
:10321000F985309721F06C857D85CE010995109256
:103220007104109270048D8180FD03C0CE010E9454
:10323000D718DF91CF910895882311F0FA0101C0CA
:10324000FB01099508950E94131680E090E00E940A
:103250005A28883E9E4F21F00E94D30B0E945D2386
:1032600046E050E06CE170E083EB94E00E943C2883
:103270001092B2048091B3048C7F11F40E945D23FC
:1032800008958F929F92AF92BF92CF92DF92EF926A
:10329000FF92C0900603D0900703E0900803F090DF
:1032A00009038FB7F8948090790490907A04A090E5
:1032B0007B04B0907C048FBF0E943518AB01BC0129
:1032C0004093060350930703609308037093090328
:1032D00080910E0390910F03A0911003B091110300
:1032E000880D991DAA1DBB1D8C199D09AE09BF092A
:1032F00080930E0390930F03A0931003B0931103D8
:1033000020911203211109C021E0813C9742A9407C
:10331000B10508F420E0822F01C081E080FD08C0E3
:103320008091B304982F937019F08695869501C00B
:1033300080E090910C01913091F028F0923091F062
:103340009330E9F047C01092080140930A0350936C
:103350000B0360930C0370930D0381E00DC00E947A
:103360005E2238C0809307018091B30483708093FC
:1033700006010E94701583E080930C012BC08091A0
:10338000B204882351F046E050E06CE170E083EB3A
:1033900094E00E9460281092B20440910A03509178
:1033A0000B0360910C0370910D032FB7F89480917B
:1033B000790490917A04A0917B04B0917C042FBF92
:1033C000841B950BA60BB70B4A97A105B10510F00E
:1033D00010920C01FF90EF90DF90CF90BF90AF90D4
:1033E0009F908F9008959091B3049370A1F08111F4
:1033F00002C0946007C0833010F0986003C0880F4B
:10340000880F982B9093B30410920C018091B20412
:1034100081608093B20408959091B304937059F041
:103420008093B4046093B5044093B6048091B204D1
:1034300081608093B2040895EF92FF920F931F93DF
:10344000CF93DF937C018B010E941B17811119C060
:10345000E70101151105A1F08091E80085FD0AC082
:103460008091E8008E778093E8000E941B178823E4
:1034700081F307C089918093F10001501109E9CFD0
:1034800080E0CDB7DEB7E6E00C942428AAE2B0E0F5
:10349000ECE4FAE10C940B28EAEAF4E082EB94E025
:1034A0002091F10021938E179F07D1F78091AB04F3
:1034B000833009F463C030F4813071F0823009F454
:1034C0009FC0B6C08A3009F48BC08B3009F46EC03F
:1034D000893009F0ADC020C08091AA04813A09F07A
:1034E000A7C08091E800877F8093E8008091AE04B8
:1034F0009091AF04892B21F460E286E894E003C048
:1035000060E080E090E070E00E94A2178091E80007
:103510008B778093E8008CC08091AA04813209F0F7
:1035200087C08091AE049091AF04009719F0029784
:1035300009F07EC08091E800877F8093E800809149
:10354000E80082FD05C08091A8048111F8CF70C009
:103550002091F3008091F20090E0922B029731F4D9
:103560008091F100813011F0863021F48091F100DA
:10357000809385048091E8008B7756C08091AA04DF
:10358000813A09F055C08091AE049091AF04892B27
:1035900009F04EC08091E800877F8093E800809119
:1035A000E80080FFFCCF80910B0139C08091AA0414
:1035B0008132F1F58091AE049091AF04892BC1F571
:1035C0008091E800877F8093E8000E944E178091E9
:1035D000AC0480930B01109283040E94CF2528C075
:1035E0008091AA04813221F58091E800877F809341
:1035F000E8000E944E178091AD048093840418C0A7
:103600008091AA04813AA1F48091E800877F809399
:10361000E8008091E80080FFFCCF809184048093D3
:10362000F1008091E8008E778093E8000E944E17A9
:103630008091E80083FFD9C18091AA049091AB04E6
:10364000492F50E04A30510508F0CFC1FA01E05946
:10365000FF4F0C94A828803821F0823809F0C5C1AA
:1036600008C08091A6049091A704992389F08260F4
:103670000FC08091AE048F70873008F0B6C1809380
:10368000E9008091EB0085FB882780F91092E90022
:103690009091E800977F9093E8008093F10010925A
:1036A000F1006FC1282F2D7F09F09FC1882319F0E9
:1036B000823061F09AC18091AC04813009F095C1EB
:1036C000933009F080E08093A7042EC08091AC0471
:1036D00081112AC08091AE048F702FEF280F263001
:1036E00008F083C18093E9002091EB0020FF1CC00B
:1036F000933021F48091EB00806214C09091EB0034
:1037000090619093EB0021E030E0A90102C0440FEA
:10371000551F8A95E2F74093EA001092EA008091E3
:10372000EB0088608093EB001092E9008091E80044
:10373000877F8093E8000E944E1757C1811155C1C1
:103740001091AC041F778091E3008078812B8093E7
:10375000E3008091E800877F8093E8000E944E1785
:103760008091E80080FFFCCF8091E3008068809327
:10377000E300111102C082E001C083E08093A8043D
:1037800034C18058823008F030C12091AC043091AF
:10379000AD042C3D53E0350779F583E08A838AE256
:1037A00089834FB7F894DE01139620E03EE051E2A2
:1037B000E32FF0E050935700E49120FF03C0E2951F
:1037C000EF703F5FEF708E2F90E0EA3010F0C796F9
:1037D00001C0C0968D939D932F5F243149F74FBF51
:1037E0008091E800877F8093E8006AE270E0CE0174
:1037F00001960E94A217B4C08091AE049091AF04CC
:10380000432F552743305105A9F068F44130510545
:1038100009F4FAC04230510509F0E7C084E590E0B0
:10382000E5ECF6E04BC04132510529F14232510539
:1038300089F1DBC0C901992781309105A1F058F0C9
:10384000029709F0D2C0EBE2F7E0E4918E2F90E00E
:10385000EBE2F7E030C0E7E7F7E0E4918E2F90E08D
:10386000E7E7F7E028C0EDE4F7E0E4918E2F90E081
:10387000EDE4F7E020C08330910508F0B6C0880F72
:10388000991FFC01E057FE4F0190F081E02D89E087
:1038900090E014C08330910508F0A7C0FC01EE0F42
:1038A000FF1FE657FE4F0190F081E02DDC01A95784
:1038B000BE4F8C9190E0009709F497C02091E800EA
:1038C000277F2093E8002091B0043091B10428179D
:1038D000390708F4C90140E0009789F12091A80454
:1038E000222309F43DC02530D9F12091E80023FDC1
:1038F00037C02091E80022FD2FC02091E80020FF72
:10390000EBCF4091F3002091F20030E0342B009790
:1039100059F02830310540F444914093F10031963C
:1039200001972F5F3F4FF3CF41E02830310509F079
:1039300040E02091E8002E772093E800CDCF4111A0
:10394000CDCF0AC08091A804882351F0853041F082
:103950008091E80083FD04C08091E80082FFF2CFEF
:103960008091E8008B778093E8003FC08038E9F5CC
:103970008091E800877F8093E8008091A90480937C
:10398000F1008091E8008E77D4CE81112EC0809115
:10399000AC049091AD04992702973CF58091E80022
:1039A000877F8093E8001091AC041093A9040E94D3
:1039B0004E17111106C08091E30087FD02C081E01F
:1039C00001C084E08093A80442E061EC81E00E94A1
:1039D0006D1742E061EC82E00E946D1742E261ECFB
:1039E00083E00E946D178091A8048091E80083FF16
:1039F00010C08091E800877F8093E8008091EB0001
:103A000080628093EB0005C082E190E0E9E1F7E09D
:103A100055CFAA96E3E00C9427281F920F920FB679
:103A20000F9211242F933F934F935F936F937F9344
:103A30008F939F93AF93BF93CF93DF93EF93FF93B6
:103A4000C091E900CF708091EC00D82FD17080FD3B
:103A5000D0E81092E9008091F000877F8093F00019
:103A600078940E94461A1092E9008091F0008860D4
:103A70008093F000CD2BCF70C093E900FF91EF91C0
:103A8000DF91CF91BF91AF919F918F917F916F9176
:103A90005F914F913F912F910F900FBE0F901F900C
:103AA0001895E8EDF0E080818E7F80831092E2002F
:103AB0001092DA001092E100A0EEB0E08C918160EB
:103AC0008C9380818F77808319BCA7EDB0E08C91B7
:103AD0008E7F8C9380818F7E8083109282040895E4
:103AE000A0E0B0E0E6E7FDE10C940628C8EDD0E0E8
:103AF00088818F7E8883E7EDF0E08081816080831C
:103B000084E082BF81E08093820488818E7F8883F5
:103B100002EE10E0F80110821092DA0081EEC82E59
:103B2000D12CF601108288818F7788838881806804
:103B3000888388818F7D888319BC1092A804109295
:103B4000A9041092A7041092A60490EEE92EF12C7D
:103B5000F70180818B7F808388818160888342E048
:103B600060E080E00E946D17F60180818E7F808387
:103B7000F801808181608083808188608083F70183
:103B800080818E7F8083888180618883CDB7DEB716
:103B9000E8E00C9422281F920F920FB60F92112486
:103BA0002F933F934F935F936F937F938F939F9345
:103BB000AF93BF93EF93FF938091E10082FF09C021
:103BC0008091E20082FF05C08091E1008B7F8093AD
:103BD000E1008091DA0080FF2AC08091D80080FF48
:103BE00026C08091DA008E7F8093DA008091D90020
:103BF00080FF18C080E189BD82E189BD09B400FE63
:103C0000FDCF81E08093A8048091820481110FC0D0
:103C10000E94511D0E94701D8091E200846080937B
:103C2000E20005C019BC1092A80410928204809191
:103C3000E10080FF17C08091E20080FF13C08091F7
:103C4000E2008E7F8093E2008091E20080618093A9
:103C5000E2008091D80080628093D80019BC85E092
:103C60008093A8048091E10084FF30C08091E2003D
:103C700084FF2CC080E189BD82E189BD09B400FECA
:103C8000FDCF8091D8008F7D8093D8008091E10096
:103C90008F7E8093E1008091E2008F7E8093E2002E
:103CA0008091E20081608093E2008091A9048823E2
:103CB00011F084E007C08091E30087FD02C081E03D
:103CC00001C083E08093A8048091A8048091E10062
:103CD00083FF27C08091E20083FF23C08091E10031
:103CE000877F8093E10082E08093A8041092A9046A
:103CF0008091E1008E7F8093E1008091E2008E7FD1
:103D00008093E2008091E20080618093E20042E0D3
:103D100060E080E00E946D178091F00088608093E1
:103D2000F000FF91EF91BF91AF919F918F917F91A3
:103D30006F915F914F913F912F910F900FBE0F9018
:103D40001F901895AFE0B0E0E8EAFEE10C94FC2784
:103D500085B7806885BF85B7806885BF84B7877F52
:103D600084BF0FB6F894A895809160008861809315
:103D70006000109260000FBE90E080E80FB6F894EB
:103D800080936100909361000FBE89ED99E090935C
:103D90007B0280937A020E94511D0E94701D8091C7
:103DA000E20084608093E20078948091A8048823E4
:103DB000A1F01091E9001F709091EC00892F8170A3
:103DC00090FD80E8182B1092E9008091E80083FDB7
:103DD0000E94461A1F701093E90082E084BD93E0B0
:103DE00095BD9AEF97BD80936E000E94B11290E04E
:103DF00090931A01809319010E94EC130E943214CF
:103E0000EFEBF4E0A0EDB4E011921D9224E0ED3C64
:103E1000F207D1F78EE090E00E94AE288093B904BB
:103E20009093BA04FC010E961192E817F907E1F796
:103E300089EA8093800089E08093810024982C98FF
:103E40003F988AB18F7C8AB96E98479A8BB180630C
:103E50008BB9769A8FE090E00E9454286093BB045F
:103E60007093BC048093BD049093BE0467703FEFD1
:103E7000639FB001112475956795759567957727B0
:103E8000709389006093880070938B0060938A0020
:103E900070938D0060938C000E94281380E090E066
:103EA0000E945A28883E9E4F11F00E94D30B82E058
:103EB00090E00E944C288093DE0484E090E00E9411
:103EC0004C28182F82E290E00E944C28212F30E0ED
:103ED000382B30937E0420937D0483E090E00E9491
:103EE0004C280E9493258091CD040E9487120E9445
:103EF00023198091B304837011F410920C01809106
:103F0000B3048C7F81608093B3048DE091E0909343
:103F100075048093740458E1A52EB12C6EED862EA5
:103F200064E0962E01E04DEEC42E44E0D42E809144
:103F3000A804853009F070C020E4F22E33E0E32EAF
:103F400010E18091A804853009F05EC08091A8043A
:103F5000843009F437C00E94411980911203811105
:103F60000DC00E945E22109207018091B3048370FD
:103F7000809306010E947015E0920C0181E080930D
:103F80001203109278040FB6F894A895A0926000DE
:103F90000FBEF092600083B7817F846083BF83B7D8
:103FA000816083BF7894889583B78E7F83BF0FB677
:103FB000F894A895809160008861809360001092C9
:103FC00060000FBE8091A704882309F4BACF0E9435
:103FD000B11290E090931A01809319010E94EC13A2
:103FE0000E943214E0EDF4E011928E169F06E1F784
:103FF0000E94E50EE0EDF4E08191811195C124E08D
:10400000EE3DF207C9F79DCF109283040E94CF25A1
:104010000E94CA18109212030E94E50E9FEDE92E2D
:1040200094E0F92EA0EDB4E0F70191918D918927EC
:10403000CE16DF0619F08823C1F322C0811120C0FB
:104040000E9441187C018091CE049091CF04E81623
:10405000F90609F452C08FEF8E838F8318860E9471
:1040600041188160782F9A8789874E815F816885A2
:104070008A850E94D011F092CF04E092CE043DC018
:1040800080ED682E84E0782E10E0F30121903F014E
:10409000F7013080322449F1512C44244394832D7C
:1040A0008421E1F05B861C8791E0822D842109F454
:1040B00090E09D870E9441188160782F9F878E87AE
:1040C0004B855C856D858F850E94D01110920E0303
:1040D00010920F0310921003109211035394440C8A
:1040E000F6E05F12DCCFF70120821F5FFFEFEF1ACF
:1040F000FF0A1E3051F60E9435188091700490918D
:104100007104892BC9F08091ED049091EE040E9416
:104110002618813A910580F0809170042EE0829FEC
:10412000C0011124FC01E05EFE4F208122FD04C08D
:10413000855E9E4F0E94F1180E94411985E0E7EFCD
:10414000F4E0DE01119601900D928A95E1F710924C
:10415000F8041092F9041092FA041092FB041A81E8
:10416000111104C08B81882309F450C08091F5049B
:104170009091F6040E9426189C019091F1049923D5
:1041800009F4EBC02531310508F440C09F3F19F018
:104190009F5F9093F104112361F00E940D2411168A
:1041A00014F491E001C09FEF899F802D112480932A
:1041B000F8041B81112361F00E940D24111614F4E0
:1041C00091E001C09FEF899F802D11248093F90415
:1041D0003091F8043323D1F02091F9042223B1F077
:1041E00045EB3403C0011124992319F09093F8048E
:1041F00002C00093F80435EB2303C0011124992376
:1042000019F09093F90402C00093F9041C81111174
:1042100004C08D81882309F450C08091F3049091EB
:10422000F4040E9426189C019091F004992309F44B
:1042300098C02531310508F440C09F3F19F09F5FB9
:104240009093F004112361F00E94EF23111614F4EF
:1042500091E001C09FEF899F802D11248093FA0483
:104260001D81112361F00E94EF23111614F491E0D7
:1042700001C09FEF899F802D11248093FB04309112
:10428000FA043323D1F02091FB042223B1F045EB53
:104290003403C0011124992319F09093FA0402C049
:1042A0000093FA0435EB2303C0011124992319F07C
:1042B0009093FB0402C00093FB0445E050E0BE0174
:1042C0006F5F7F4F87EF94E00E94CF29892BA9F47D
:1042D0008091F80481110FC08091F90481110BC005
:1042E0008091FA04811107C081E09091FB04911143
:1042F00003C080E001C081E080FD0E948B2485E046
:10430000FE013196A7EFB4E001900D928A95E1F796
:104310000E94CA189091EF04891709F408CE80937F
:10432000EF040E943518FFCD19BD82E189BD09B4A3
:1043300000FEFDCF8091D8008F7D8093D8008091C2
:10434000E00082608093E0008091E00081FDFCCF7E
:10435000109283040E94CF25F4CD232B09F018CFAF
:1043600055CF2139314008F06ACFA7CFA22F50E0B6
:10437000FA01EE0FFF1FE551FE4F9081905297FD1D
:104380009195440F551FFA01E651FE4F3081232FBE
:1043900030E02A1B3109290F311D97FD3A95620F34
:1043A0000895A0E0B0E0E7EDF1E20C940628F62EC7
:1043B000472FE82FF0E0711106C0E558F84F8491BF
:1043C000782F682F73C0272F30E0E558F84FE4911D
:1043D000FE2F0E2F10E056E0659FC0011124CFEF95
:1043E000D0E0BE010E94E8275BEA5603C001579F58
:1043F000900D11248F0D911D8F0D911D982F990FE8
:10440000980F7E01E21AF30AE09ED001E19EB00D02
:10441000F09EB00D11248B2F499FA0011124452F30
:1044200055277E01E41AF50AE09EA001E19E500D99
:10443000F09E500D11246E01C91AD108C29E700160
:10444000C39EF00CD29EF00C11242F2D3327C21BDB
:10445000D30BC09F9001C19F300DD09F300D112410
:10446000932F6230710591F048F461157105E1F008
:1044700061307105B9F49E2FE52F16C064307105C7
:1044800069F040F06630710579F00CC09E2FEB2F7B
:10449000832F0AC0EB2F8F2F952F06C09B2F8E2FB7
:1044A000E32F02C09B2F852F7E2F692FCDB7DEB75C
:1044B000E8E00C9422280E9432150895EF92FF92B2
:1044C0000F931F93CF93DF93D82F809107018D1304
:1044D0000DC02091B304237030E04091060150E0FC
:1044E00081E02417350719F480E001C081E0817074
:1044F00080930A018091B80490910901981739F0CE
:104500008093090140E060E080E00E945B22D130AE
:1045100071F580910801C82FCC0FCC0FC80F15E0A2
:104520001C0F113308F010E36091B4047091B504CE
:104530008091B6040E94D121062FF72EE82EC117D4
:1045400090F4EC2FF0E0DF01A65BBD4F8C919091D1
:104550000901982331F02E2D402F6F2DCF010E949D
:10456000F414CF5FECCF81E0103368F00BC0D13092
:10457000F0F480910A01882329F040E060E080E0B7
:104580000E945B2280E0909108019F5F9093080158
:1045900081118EC082E080930C0180910A0181110B
:1045A00087C0D11185C083E080930C0181C0D230D7
:1045B00009F045C080910801C82FCC0FCC0FC80F5F
:1045C00005E00C0F013308F000E33091B704369595
:1045D000369521E0320F08F43FEF40910A035091E5
:1045E0000B0380E090E0439F812D539F800D911D30
:1045F0001124182FC017F0F4EC2EF12CF701E65B14
:10460000FD4F908180910901892391F06091B4045C
:104610007091B5048091B604212F4C2F0E94B621D1
:104620000E94D121462F282F672FC7010E94F41422
:10463000CF5FE0CF81E0003308F4A5CFA3CFDF3F09
:1046400089F580910A0390910B03A0910C03B0911E
:104650000D0388279C70AA27BB272AE0B695A7954B
:10466000979587952A95D1F782309105A105B105D7
:1046700071F083309105A105B10569F040E0019723
:10468000A105B10511F060E008C064E102C044E199
:1046900060E080E003C044E164E184E10E945B22C9
:1046A00082E082CF809108018F5F8093080172CFF2
:1046B000CDB7DEB7E6E00C942428E3EBF4E085E028
:1046C00080838091530190915401A0915501818381
:1046D0009283A3838CE384838FEF858346E050E04D
:1046E0006CE170E0CF010E9460281092B20408953E
:1046F0008D3E39F49091F90497FF35C01092F9047A
:1047000059C08E3E29F49091F9041916BCF32BC0C0
:104710009091F8048F3E29F497FF25C01092F80479
:1047200049C0803F19F41916CCF31DC09091FA04CA
:10473000893F29F41916BCF41092FA043BC08A3F51
:1047400019F497FF10C0F8CF8B3F39F49091FB0418
:1047500097FF09C01092FB042DC08C3F21F490916B
:10476000FB041916BCF39FE0980F983080F421E009
:1047700030E0A90102C0440F551F9A95E2F7CA0123
:1047800080959091F70489238093F70413C08D3F9F
:1047900021F48091F2048E7F0BC08E3F21F4809132
:1047A000F2048D7F05C08F3F29F48091F2048B7F46
:1047B0008093F2048091F804811106C08091F9047D
:1047C000811102C01092F1048091FA04811106C097
:1047D0008091FB04811102C01092F0040895809131
:1047E000F20480FD16C081FD14C082FD14C08091CA
:1047F000F004882371F08D3270F423E0829FC001B1
:1048000011246DE270E00E949428862F672B09F036
:10481000089581E0089583E008958091F20480FD79
:1048200017C081FD17C082FD19C08091F104882353
:1048300099F08D3298F428E1829FC00111246DE235
:1048400070E00E949428862F672B49F481E0089538
:1048500086E008958CE0089588E0089588E1089541
:104860008D3E21F40E940D24819504C08E3E29F4D2
:104870000E940D248093F90408958F3E21F40E9434
:104880000D24819504C0803F29F40E940D2480935B
:10489000F8040895893F19F40E94EF2305C08A3F68
:1048A00031F40E94EF2381958093FA0408958B3FA1
:1048B00021F40E94EF23819504C08C3F29F40E94CB
:1048C000EF238093FB0408959FE0980F983078F4CD
:1048D00021E030E0A90102C0440F551F9A95E2F78C
:1048E000CA019091F704892B8093F70408958D3FB6
:1048F00021F48091F20481600BC08E3F21F48091FD
:10490000F204826005C08F3F29F48091F204846034
:104910008093F20408950E9441182091F804211117
:1049200004C02091F904222321F09093F60480938F
:10493000F5042091FA04211104C02091FB042223E4
:1049400021F09093F4048093F304E0917404F091C7
:104950007504309731F00480F581E02D87EF94E005
:104960000995089580E090E00E94B41880E090E0FE
:104970000E949E1810926F040E945D0CE7EFF4E015
:1049800085E0DF011D928A95E9F71092F1041092FB
:10499000F0041092F2040E948B240895CF92DF92CB
:1049A000FF920F931F93CF93DF936C010091CD047F
:1049B0008091F602082BC7E0D0E010E0C8010C2E71
:1049C00002C0959587950A94E2F780FD04C021976F
:1049D000A8F7F12C09C0FC2EB6018C2F0E941E0AEC
:1049E0000E94370A019799F38F2DDF91CF911F9184
:1049F0000F91FF90DF90CF900895CF93DF93EC015C
:104A00000E94CE24BE010E941E0A0E94370ADF9136
:104A1000CF910895292F9E3078F5863068F590E083
:104A200036E0239F800D911D1124682F677023E0CD
:104A3000969587952A95E1F7FC01EE0FFF1FE80F89
:104A4000F91FE450FB4F40E050E080E0219130E05E
:104A5000062E02C0369527950A94E2F72170332777
:104A6000042E01C0220F0A94EAF7822B4F5F5F4F9A
:104A70004330510559F7089580E00895292F9E305D
:104A800088F5863078F590E036E0239F800D911D03
:104A90001124282F277051E001C0550F2A95EAF7FD
:104AA00023E0969587952A95E1F7FC01EE0FFF1F0D
:104AB000E80FF91FE450FB4F20E030E070E0408148
:104AC000CB01022E02C0969587950A94E2F7817079
:104AD000819584278523842781932F5F3F4F23303F
:104AE000310569F708950E9487128093CD040E94D2
:104AF000B224089521E030E001C0220F8A95EAF740
:104B000020958091CD0482230E947325089521E091
:104B100030E001C0220F8A95EAF78091CD04822B04
:104B20000E94732508958093F6020E94B22408958E
:104B3000CF93FC018081918123813481232B31F03B
:104B40009F3F31F491E08F3F19F403C091E001C021
:104B500090E0C92FC17090FD1CC0808191810E949E
:104B6000FD2492959F70963079F010F4925001C018
:104B70009A50923088F4803F71F018F4883E60F4C7
:104B80000AC0843F49F407C0883E28F0813F21F4E1
:104B900002C0C0E001C0C1E08C2FCF910895809188
:104BA0000B01882331F080917D0487FF02C08EE1E4
:104BB00001C086E0EEE7F2E0DF011D928A95E9F799
:104BC0000E94B2240895882321F00E944F0C0E9475
:104BD0005D0C0895882339F090916F04892B8093A0
:104BE0006F040E945D0C0895882321F00E94560CEA
:104BF0000E945D0C0895882339F090918304892BDD
:104C0000809383040E945D0C0895882391F19CEFAA
:104C1000980F913A30F4682F8CE792E00E94761852
:104C20000DC090E2980F983060F4877091E001C059
:104C3000990F8A95EAF7892F0E94560C0E945D0C05
:104C400008959BE5980F933028F480E090E00E944F
:104C5000B418089598E5980F973128F480E090E013
:104C60000E949E1808958D3E20F00E9478230E9495
:104C70008B240895CF93882309F49FC0C82F8CEF0D
:104C80008C0F813A08F05BC080910B018823E1F022
:104C900080917D0487FF18C0EC2FE695E695E69598
:104CA000F0E0E458FD4F8281282F30E04C2F477010
:104CB00081E090E002C0880F991F4A95E2F78223B5
:104CC0009323892B59F411C0EEE7F2E08191C817C4
:104CD00029F082E0E438F807C9F707C06C2F8CE7A9
:104CE00092E00E9476180E945D0C80910B0188234F
:104CF000B1F080917D0487FF12C0EC2FE695E69518
:104D0000E695F0E0E458FD4FC77081E090E001C007
:104D1000880FCA95EAF79281892B828320C0AEE77B
:104D2000B2E0EFEF80E09D91C917C9F0EF3F19F4B1
:104D3000911101C0E82F8F5F8630A9F735C080E25E
:104D40008C0F883078F4C77081E090E001C0880F44
:104D5000CA95EAF790918304892B809383040E947B
:104D60005D0C2BC0EBE5EC0FE33040F4F0E0EA5AC9
:104D7000FE4F808190E00E94B4181FC0E8E5EC0F60
:104D8000E73150F4F0E0EE0FFF1FE75AFE4F80814D
:104D900091810E949E1811C0CD3E78F08C2F0E9408
:104DA00030240E948B2409C0EF3FC9F20E2E000C64
:104DB000FF0BE458FD4FC283D2CFCF9108951F93CC
:104DC000CF93DF93182FEB010E943A26209741F0F2
:104DD0008FE99FE00197F1F700C000002197F6CF1F
:104DE000812F0E940526DF91CF911F910895109287
:104DF000B9008CE08093B8000895A0E0B0E0E3E053
:104E0000F7E20C940328B82EEB010E9441186C01C4
:104E1000C431D10558F0CF3F8FEFD80759F0CE01FC
:104E200064E170E00E94E8277B0107C0EE24E39470
:104E3000F12C03C025E0E22EF12C84E8A82E94EAA0
:104E4000992E1092BC009092BC000E9441188C01D7
:104E50008091BC0087FD07C0C8010E942618E81693
:104E6000F906B0F729C08091B900887F883041F0F9
:104E70008091B900887F803119F00FEF1FEF1EC0BD
:104E8000B092BB00A092BC000E9441188C0180919E
:104E9000BC0087FD07C0C8010E942618E816F90665
:104EA000B0F70AC08091B900887F883111F0803452
:104EB00021F700E010E00EC00EEF1FEFCF3F8FEFA5
:104EC000D80709F4BECFC6010E942618C817D90713
:104ED00008F0B7CFC801CDB7DEB7EBE00C941F28C0
:104EE0000F931F93CF93DF93EB018093BB0084E874
:104EF0008093BC000E9441188C018091BC0087FD0A
:104F00000DC0CF3F8FEFD807C1F3C8010E9426180C
:104F1000C817D90790F78EEF9FEF0CC02091B9000A
:104F2000287F81E090E0283211F480E090E09195B4
:104F300081959109DF91CF911F910F9108950F9362
:104F40001F93CF93DF93EC0184E88093BC000E9411
:104F500041188C018091BC0087FD0DC0CF3F8FEFC1
:104F6000D807C1F3C8010E942618C817D90790F7BF
:104F70008EEF9FEF03C08091BB0090E0DF91CF9157
:104F80001F910F910895A0E0B0E0E9ECF7E20C94D6
:104F900006286B018A017901B9010E94FD26E6010C
:104FA0000C0D1D1DC017D10741F424E92093BC004E
:104FB000CDB7DEB7E8E00C94222897FDF6CFB70115
:104FC00089910E947027EECF84E98093BC000895F8
:104FD000AA1BBB1B51E107C0AA1FBB1FA617B7071F
:104FE00010F0A61BB70B881F991F5A95A9F780953B
:104FF0009095BC01CD0108952F923F924F925F9200
:105000006F927F928F929F92AF92BF92CF92DF92D8
:10501000EF92FF920F931F93CF93DF93CDB7DEB73D
:10502000CA1BDB0B0FB6F894DEBF0FBECDBF0994D1
:105030002A88398848885F846E847D848C849B8428
:10504000AA84B984C884DF80EE80FD800C811B8136
:10505000AA81B981CE0FD11D0FB6F894DEBF0FBE65
:10506000CDBFED010895FB01DC0102C005900D925A
:1050700041505040D8F70895DC01CB01FC01F9996B
:10508000FECF06C0F2BDE1BDF89A319600B40D9294
:1050900041505040B8F70895F999FECF92BD81BDB7
:1050A000F89A992780B50895A6E1B0E044E050E071
:1050B0000C943E28A8E1B0E042E050E00C943E2879
:1050C000DC01A40FB51F4150504048F0CB01840FC4
:1050D000951F2E910E94712841505040D0F708959D
:1050E000262FF999FECF92BD81BDF89A019700B4A1
:1050F000021639F01FBA20BD0FB6F894FA9AF99A41
:105100000FBE08950396272F0E9471280E947028D1
:10511000252F0E947128242F0C9471280196272F87
:105120000E9471280C94702897FB072E16F40094A7
:1051300007D077FD09D00E94E82707FC05D03EF490
:10514000909581959F4F0895709561957F4F089533
:10515000EE0FFF1F0590F491E02D09940F931F931C
:10516000CF93DF938230910510F482E090E0E091DC
:105170001F05F091200520E030E0A0E0B0E030977E
:1051800019F1408151810281138148175907C8F0F4
:105190008417950769F4109731F012960C931297C3
:1051A00013961C9327C000931F051093200522C05F
:1051B0002115310519F04217530718F49A01BD0162
:1051C000EF01DF01F801DBCF21153105F9F0281BD4
:1051D000390B2430310580F48A819B81611571057A
:1051E00021F0FB019383828304C090932005809378
:1051F0001F05FE01329644C0FE01E20FF31F8193AA
:10520000919322503109398328833AC020911D059A
:1052100030911E05232B41F42091020130910301AE
:1052200030931E0520931D0520910001309101014E
:105230002115310541F42DB73EB74091040150913D
:105240000501241B350BE0911D05F0911E05E217A9
:10525000F307A0F42E1B3F0B2817390778F0AC0199
:105260004E5F5F4F2417350748F04E0F5F1F509376
:105270001E0540931D058193919302C0E0E0F0E08C
:10528000CF01DF91CF911F910F910895CF93DF93BD
:10529000009709F481C0FC01329713821282A09119
:1052A0001F05B0912005109781F420813181820F74
:1052B000931F20911D0530911E052817390751F5C0
:1052C000F0931E05E0931D0567C0ED0120E030E07E
:1052D000CE17DF0740F44A815B819E0141155105DD
:1052E000F1F0EA01F5CFD383C28340815181840F6D
:1052F000951FC817D90759F488819981840F951F84
:105300000296918380838A819B8193838283211576
:10531000310529F4F0932005E0931F053DC0E90114
:10532000FB83EA8349915991C40FD51FEC17FD0700
:1053300061F480819181840F951F0296E901998320
:105340008883828193819B838A83E0E0F0E01296D8
:105350008D919C911397009719F0FD01DC01F7CF17
:105360008D919C9111979D012E5F3F4F820F931F4E
:1053700020911D0530911E052817390769F43097D3
:1053800029F41092200510921F0502C01382128288
:10539000B0931E05A0931D05DF91CF910895FB01E9
:1053A000DC0104C08D910190801921F441505040DE
:0C53B000C8F7881B990B0895F894FFCFF4
:1053BC00000021052000FFFF00FF0001034014B393
:1053CC001494148F148A143F142000000000000061
:1053DC00003411B01188100000000000000000180B
:1053EC001190116B100000000000000000FC107008
:1053FC00114E100000000000000000E010501131B0
:10540C0010000000FFFF818283E200E900EA00B592
:10541C0000B600B700CD008301CC008A0192019444
:10542C00012102230224022502260227022A02B3AA
:10543C0000B4006F00700040476D85063E06D10534
:10544C00D706F0060907FFFFFFFFFFFF1C21262BE5
:10545C002FFF1B20252A2EFF1A1F24292DFF191E72
:10546C0023282CFF181D2227FFFFFFFFFFFFFFFF44
:10547C00FFFFFFFFFFFF00050A0FFFFF01060B10E8
:10548C0014FF02070C1115FF03080D1216FF040977
:10549C000E1317FFFFFFFFFFFFFF89009A00AC0000
:1054AC00BD00CE00890C9A0CAC0CBD0CCE0C89192D
:1054BC009A19AC19BD19CE1989269A26AC26BD2687
:1054CC00CE269A33AC33BD33CE3356004400330072
:1054DC0022001100560C440C330C220C110C5619E2
:1054EC00441933192219111956264426332622261B
:1054FC0011264433333322331133040404040404DB
:10550C000404040404040404040404040404010155
:10551C000101040404040404040404040404040445
:0A552C000404040404040101010159
:00000001FF
